:04000000F5EF7EF0AA
:10FD9A00E5EC7EF058EC7FF0A1EC7FF0D3EF7EF03B
:10FDAA0000EF00F0326E32B002D08B9801D08B880F
:10FDBA0031380F0B3AEC7FF031503AEC7FF01200F9
:10FDCA00720ED36E000E0F013B6F3A993A9B000EEA
:10FDDA00956E9498949A000E8B6E000E8C6E12009B
:10FDEA00100EF66EFE0EF76E000EF86E00EE01F0C3
:10FDFA0010EE2EF00900F5CFEEFFE550E150FAE1E2
:10FE0A000001CDEF7EF045766572796F6E6521004F
:10FE1A0000000000000000000000000000000000D8
:10FE2A0048656C6C6F2100000000000000000000B3
:10FE3A00000000002FC031F030C032F027EF7FF011
:10FE4A002F4A302A2FC0D9FF30C0DAFFDF50D8A49A
:10FE5A0031EF7FF033EF7FF025EF7FF031502F5CE9
:10FE6A002F6E32503058306E1200306E8B8A4E0E22
:10FE7A002F6EEB0EE82EFED72F2EFCD700F030C0E7
:10FE8A008CFF4E0E2F6EEB0EE82EFED72F2EFCD7D0
:10FE9A0000F08B9A4E0E2F6EEB0EE82EFED72F2E09
:10FEAA00FCD700F01200680E336EE40EE82EFED77F
:10FEBA00332EFCD700D0300E316E000ED7EC7EF018
:10FECA001A0E336EF80EE82EFED7332EFCD700D06A
:10FEDA00300E316E000ED7EC7EF01A0E336EF80E2D
:10FEEA00E82EFED7332EFCD700D0300E316E000E2E
:10FEFA00D7EC7EF0020E316E000ED7EC7EF0060EC5
:10FF0A00316E000ED7EC7EF00F0E316E000ED7EC7C
:10FF1A007EF0280E316E000ED7EC7EF0010E316EA7
:10FF2A00000ED7EC7EF01A0E336EF80EE82EFED7CE
:10FF3A00332EFCD700D01200940E316E000ED7EC8F
:10FF4A007EF0000E366E000E356EB9EF7FF01B0E96
:10FF5A003524D96E000E3620DA6EDF50316E010E6E
:10FF6A00D7EC7EF0354A362A1B0E2F6E000E306E05
:10FF7A001FEC7FF02F50355C30503658D8A0C8EFB0
:10FF8A007FF0CAEF7FF0ACEF7FF0030E346E080EFD
:10FF9A00336E770EE82EFED7332EFCD7342EFAD7DF
:10FFAA0000F0D40E316E000ED7EC7EF0000E386EE3
:10FFBA00000E376EEEEF7FF0010E3724D96E000E79
:10FFCA003820DA6EDF50316E010ED7EC7EF0374AF8
:10FFDA00382A010E2F6E000E306E1FEC7FF02F5064
:10FFEA00375C30503858D8A0FDEF7FF0FFEF7FF034
:06FFFA00E1EF7FF01200B0
:020000040030CA
:0E000000FF281F3CFFBD81FF0FC00FE00F4027
:00000001FF
