:04000000BDEF7EF0E2
:10FC9A0074EC7EF006EC7FF04FEC7FF053EF7EF0D1
:10FCAA0000EF00F0506E50B002D08B9801D08B88D4
:10FCBA004F380F0B9FEC7EF04F509FEC7EF01200F6
:10FCCA004D6963726F636F6E74726F6C6C657221CB
:10FCDA000000000000000000000000000000720E9A
:10FCEA00D36E000E0F013B6F3A993A9B000E956E48
:10FCFA009498949A000E8B6E000E8C6E12004DC072
:10FD0A004FF04EC050F08CEF7EF04D4A4E2A4DC057
:10FD1A00D9FF4EC0DAFFDF50D8A496EF7EF098EFF5
:10FD2A007EF08AEF7EF04F504D5C4D6E50504E582B
:10FD3A004E6E12004E6E8B8A4E0E4D6EEB0EE82EF4
:10FD4A00FED74D2EFCD700F04EC08CFF4E0E4D6EE6
:10FD5A00EB0EE82EFED74D2EFCD700F08B9A4E0EF6
:10FD6A004D6EEB0EE82EFED74D2EFCD700F012009A
:10FD7A00CA0EF66EFC0EF76E000EF86E00EE60F01C
:10FD8A0010EE1EF00900F5CFEEFFE550E150FAE162
:10FD9A00C00EF66EFD0EF76E000EF86E00EE01F064
:10FDAA0010EE4CF00900F5CFEEFFE550E150FAE114
:10FDBA0000014DEF7EF057656C636F6D6520746FBF
:10FDCA002074686973000000000000000000000051
:10FDDA000000000045766572796F6E6521000000AB
:10FDEA00000000000000000000000000000048655C
:10FDFA006C6C6F2100000000000000000000000091
:10FE0A000000680E516EE40EE82EFED7512EFCD784
:10FE1A0000D0300E4F6E000E57EC7EF01A0E516E67
:10FE2A00F80EE82EFED7512EFCD700D0300E4F6EBA
:10FE3A00000E57EC7EF01A0E516EF80EE82EFED721
:10FE4A00512EFCD700D0300E4F6E000E57EC7EF0CC
:10FE5A00020E4F6E000E57EC7EF0060E4F6E000E2D
:10FE6A0057EC7EF00F0E4F6E000E57EC7EF0280E08
:10FE7A004F6E000E57EC7EF0010E4F6E000E57ECDF
:10FE8A007EF01A0E516EF80EE82EFED7512EFCD7D0
:10FE9A0000D01200940E4F6E000E57EC7EF0000E4A
:10FEAA00546E000E536E67EF7FF0010E5324D96E25
:10FEBA00000E5420DA6EDF504F6E010E57EC7EF0C2
:10FECA00534A542A010E4D6E000E4E6E84EC7EF09B
:10FEDA004D50535C4E505458D8A076EF7FF078EFCF
:10FEEA007FF05AEF7FF0D40E4F6E000E57EC7EF083
:10FEFA00000E566E000E556E90EF7FF0600E552480
:10FF0A00D96E000E5620DA6EDF504F6E010E57EC96
:10FF1A007EF0554A562A600E4D6E000E4E6E84ECE7
:10FF2A007EF04D50555C4E505658D8A09FEF7FF04A
:10FF3A00A1EF7FF083EF7FF0800E4F6E000E57EC3B
:10FF4A007EF0000E586E000E576EB9EF7FF0390E34
:10FF5A005724D96E000E5820DA6EDF504F6E010E0C
:10FF6A0057EC7EF0574A582A390E4D6E000E4E6EE7
:10FF7A0084EC7EF04D50575C4E505858D8A0C8EFCC
:10FF8A007FF0CAEF7FF0ACEF7FF0030E526E080EDF
:10FF9A00516E770EE82EFED7512EFCD7522EFAD785
:10FFAA0000F0C00E4F6E000E57EC7EF0000E5A6E37
:10FFBA00000E596EEEEF7FF01F0E5924D96E000E17
:10FFCA005A20DA6EDF504F6E010E57EC7EF0594A16
:10FFDA005A2A1F0E4D6E000E4E6E84EC7EF04D5066
:10FFEA00595C4E505A58D8A0FDEF7FF0FFEF7FF0D2
:06FFFA00E1EF7FF01200B0
:020000040030CA
:0E000000FF281F3CFFBD81FF0FC00FE00F4027
:00000001FF
