:04000000ADEF7EF0F2
:10FC7A0064EC7EF0F6EC7EF03EEC7FF043EF7EF033
:10FC8A0000EF00F0506E50B002D08B9801D08B88F4
:10FC9A004F380F0B8FEC7EF04F508FEC7EF0120036
:10FCAA004D6963726F636F6E74726F6C6C657221EB
:10FCBA000000000000000000000000000000720EBA
:10FCCA00D36E000E0F013B6F3A993A9B000E956E68
:10FCDA009498949A000E8B6E000E8C6E12004DC092
:10FCEA004FF04EC050F07CEF7EF04D4A4E2A4DC088
:10FCFA00D9FF4EC0DAFFDF50D8A486EF7EF088EF36
:10FD0A007EF07AEF7EF04F504D5C4D6E50504E585B
:10FD1A004E6E12004E6E8B8A4E0E4D6EEB0EE82E14
:10FD2A00FED74D2EFCD700F04EC08CFF4E0E4D6E06
:10FD3A00EB0EE82EFED74D2EFCD700F08B9A4E0E16
:10FD4A004D6EEB0EE82EFED74D2EFCD700F01200BA
:10FD5A00AA0EF66EFC0EF76E000EF86E00EE60F05C
:10FD6A0010EE1EF00900F5CFEEFFE550E150FAE182
:10FD7A00A00EF66EFD0EF76E000EF86E00EE01F0A4
:10FD8A0010EE4CF00900F5CFEEFFE550E150FAE134
:10FD9A0000013DEF7EF057656C636F6D6520746FEF
:10FDAA002074686973000000000000000000000071
:10FDBA00000000004D79206C6F766521000000007C
:10FDCA00000000000000000000000000000048657C
:10FDDA006C6C6F21000000000000000000000000B1
:10FDEA000000680E516EE40EE82EFED7512EFCD7A5
:10FDFA0000D0300E4F6E000E47EC7EF01A0E516E98
:10FE0A00F80EE82EFED7512EFCD700D0300E4F6EDA
:10FE1A00000E47EC7EF01A0E516EF80EE82EFED751
:10FE2A00512EFCD700D0300E4F6E000E47EC7EF0FC
:10FE3A00020E4F6E000E47EC7EF0060E4F6E000E5D
:10FE4A0047EC7EF00F0E4F6E000E47EC7EF0280E48
:10FE5A004F6E000E47EC7EF0010E4F6E000E47EC1F
:10FE6A007EF0340E516EF20EE82EFED7512EFCD7DC
:10FE7A001200800E4F6E000E47EC7EF0000E546E9C
:10FE8A00000E536E56EF7FF0010E5324D96E000E0A
:10FE9A005420DA6EDF504F6E010E47EC7EF0534A63
:10FEAA00542A010E4D6E000E4E6E74EC7EF04D50CB
:10FEBA00535C4E505458D8A065EF7FF067EF7FF03F
:10FECA0049EF7FF0C00E4F6E000E47EC7EF0000E39
:10FEDA00566E000E556E7FEF7FF0600E5524D96E78
:10FEEA00000E5620DA6EDF504F6E010E47EC7EF0A0
:10FEFA00554A562A600E4D6E000E4E6E74EC7EF018
:10FF0A004D50555C4E505658D8A08EEF7FF090EF6A
:10FF1A007FF072EF7FF0940E4F6E000E47EC7EF08A
:10FF2A00000E586E000E576EA8EF7FF0390E572458
:10FF3A00D96E000E5820DA6EDF504F6E010E47EC74
:10FF4A007EF0574A582A390E4D6E000E4E6E74ECEA
:10FF5A007EF04D50575C4E505858D8A0B7EF7FF0FE
:10FF6A00B9EF7FF09BEF7FF0030E526E080E516ED1
:10FF7A00770EE82EFED7512EFCD7522EFAD700F074
:10FF8A00D40E4F6E000E47EC7EF0000E5A6E000E35
:10FF9A00596EDDEF7FF01F0E5924D96E000E5A20DC
:10FFAA00DA6EDF504F6E010E47EC7EF0594A5A2A3C
:10FFBA001F0E4D6E000E4E6E74EC7EF04D50595C65
:10FFCA004E505A58D8A0ECEF7FF0EEEF7FF0D0EF0A
:10FFDA007FF0660E526E760E516EC10EE82EFED777
:10FFEA00512EFCD7522EFAD700F0010E4F6E000E9A
:06FFFA0047EC7EF012004E
:020000040030CA
:0E000000FF281F3CFFBD81FF0FC00FE00F4027
:00000001FF
