:0400000013EF00F00A
:060008000C82E7EF08F096
:100018000C80E0CF04F004C0E0FF0C901000F2EF79
:0200280008F0DE
:1010000000526F626F74696320506C6174666F7216
:101010006D0052657365617263682050726F6A6516
:1010200063740000030E0A6E080E096E770EE82E38
:10103000FED7092EFCD70A2EFAD700F0300E076E25
:10104000000ED9EC08F01A0E096EF80EE82EFED745
:10105000092EFCD700D0300E076E000ED9EC08F038
:101060001A0E096EF80EE82EFED7092EFCD700D016
:10107000300E076E000ED9EC08F0020E076E000E5F
:10108000D9EC08F0060E076E000ED9EC08F00F0E32
:10109000076E000ED9EC08F0280E076E000ED9EC92
:1010A00008F0010E076E000ED9EC08F0030E0A6E70
:1010B000080E096E770EE82EFED7092EFCD70A2EF1
:1010C000FAD700F01200720ED36E000E0F013A6FC5
:1010D000000E3B6F000E3C6F9498949A000E956E34
:1010E000000E966E8B988B9A000E8C6E000E8D6E95
:1010F000F28EF28CD08E9D8A9E9A670EAF6E948C83
:10110000948EAC9CAC8AAC98AC84AB8EAB9CAB8818
:10111000B896F90EBB6E0C0E5D6F7D0E5E6F020E03
:10112000BA6EBA841200AECF0BF0A5EF08F0A00E95
:1011300002EC09F0BAEF08F0500E02EC09F0BAEF39
:1011400008F0000E8C6EBAEF08F00B50026E036AC6
:101150000350000AD8B4AFEF08F0A1EF08F0025036
:10116000410AD8B49CEF08F00C0AD8B497EF08F005
:10117000A1EF08F01200066E8B8A4E0E056EEB0E84
:10118000E82EFED7052EFCD700F006C08CFF4E0ED1
:10119000056EEB0EE82EFED7052EFCD700F08B9ADD
:1011A0004E0E056EEB0EE82EFED7052EFCD700F096
:1011B0001200086E08B002D08B9801D08B880738D7
:1011C0000F0BBBEC08F00750BBEC08F012009EAA16
:1011D000ECEF08F0EEEF08F0F0EF08F093EC08F019
:1011E0000C9211000B6A0C900C92000EF86E00012C
:1011F000FAEF08F063EC08F012EC08F0FEEF08F0EC
:1012000013EF00F0016E8D808D8401C08CFF120001
:020000040030CA
:0E000000FF281F3CFFBB81FF0FC00FE00F4029
:00000001FF
