:0400000020EF00F0FD
:100008001482F6CF08F0F7CF09F0F8CF0AF0F5CF51
:100018000BF09EAA12EF00F014EF00F016EF00F0BC
:1000280066EC08F00BC0F5FF0AC0F8FF09C0F7FF3F
:0C00380008C0F6FF1492110069EF09F0F7
:1010000000526F626F74696320506C6174666F7216
:101010006D004461746120746573743A204100501E
:101020006C6174666F726D210000020E116E380ED5
:10103000106EAD0EE82EFED7102EFCD7112EFAD76B
:101040000000300E0E6E000E4DEC09F01A0E106E00
:10105000F80EE82EFED7102EFCD700D0300E0E6E04
:10106000000E4DEC09F01A0E106EF80EE82EFED7A9
:10107000102EFCD700D0300E0E6E000E4DEC09F095
:10108000020E0E6E000E4DEC09F0060E0E6E000EF6
:101090004DEC09F00F0E0E6E000E4DEC09F0280E0F
:1010A0000E6E000E4DEC09F0010E0E6E000E4DECB2
:1010B00009F0030E116E080E106E770EE82EFED7A3
:1010C000102EFCD7112EFAD700001200AECF13F06D
:1010D000410E1318D8A46FEF08F071EF08F07CEF01
:1010E00008F0800E036E000E5BEC09F0120E056E28
:1010F000E0EC08F09EEF08F0420E1318D8A483EF3E
:1011000008F085EF08F090EF08F0D40E036E000EA3
:101110005BEC09F01F0E056EE0EC08F09EEF08F0A6
:10112000430E1318D8A497EF08F099EF08F09EEF3C
:1011300008F0010E036E000E5BEC09F01200720E57
:10114000D36E000E0F013A6F000E3B6F9498949A85
:10115000000E956E8B988B9A000E8C6EF28EF28C30
:10116000D08E9D8A9E9A670EAF6E948C948EAC9CA6
:10117000AC8AAC98AC84AB8EAB9CAB88B8961200B2
:10118000000E126ED0EF08F010501224116E11C034
:10119000F6FF0800F5CF0EF0010E4DEC09F0122A13
:1011A00010501224116E11C0F6FF0800F55000090E
:1011B000D8A4DDEF08F0DFEF08F0C4EF08F012006C
:1011C000000E076EF0EF08F005500724066E06C00B
:1011D000F6FF0800F5CF03F0010E5BEC09F0072ADB
:1011E00005500724066E06C0F6FF0800F5500009FA
:1011F000D8A4FDEF08F0FFEF08F0E4EF08F01200CC
:101200000D6E8B8A4E0E0C6EEB0EE82EFED70C2E5A
:10121000FCD700000DC08CFF4E0E0C6EEB0EE82EBE
:10122000FED70C2EFCD700008B9A4E0E0C6EEB0EE8
:10123000E82EFED70C2EFCD700001200026E8B8A1F
:101240004E0E016EEB0EE82EFED7012EFCD70000ED
:1012500002C08CFF4E0E016EEB0EE82EFED7012E63
:10126000FCD700008B9A4E0E016EEB0EE82EFED7D7
:10127000012EFCD7000012009FEC08F015EC08F0DE
:10128000C00E0E6E000E4DEC09F0010E106EC0EC9B
:1012900008F049EF09F020EF00F00F6E0FB002D018
:1012A0008B9801D08B880E380F0B00EC09F00E5094
:1012B00000EC09F01200046E04B002D08B9801D04B
:1012C0008B8803380F0B1EEC09F003501EEC09F05D
:1012D0001200136A14901492000EF86E100EF76E3E
:0612E00000013CEF09F0E3
:020000040030CA
:0E000000FF281F3CFFBF81FF0FC00FE00F4025
:00000001FF
