:0400000013EF00F00A
:060008003C8202EF0EF045
:100018003C80E0CF0CF00CC0E0FF3C901000EAEF11
:020028000DF0D9
:1010000000526F626F74696320506C6174666F7216
:101010006D0052657365617263682050726F6A6516
:101020006374004175746F6D61746963204D6F6402
:1010300065002020204D616E75616C204D6F6465E8
:101040000053656D69204D6F646500001050800B82
:10105000196E105010241F6E0FAE31EF08F033EFF1
:1010600008F034EF08F01F801F50D8B43AEF08F0B2
:101070003CEF08F04FEF08F01F28D8A442EF08F02B
:1010800044EF08F04CEF08F0000E0D6E000E0E6EEF
:10109000000E0F6E000E106E0F8E57EF08F0000E50
:1010A0000D6E000E0E6E000E0F6E000E106E1450C0
:1010B000800B191A145014241E6E13AE62EF08F040
:1010C00064EF08F065EF08F01E801E50D8B46BEF97
:1010D00008F06DEF08F080EF08F01E28D8A473EF39
:1010E00008F075EF08F07DEF08F0000E116E000EAD
:1010F000126E000E136E000E146E138E88EF08F041
:10110000000E116E000E126E000E136E000E146EA5
:101110001E50D8B48EEF08F090EF08F098EF08F06A
:101120001F50D8A496EF08F098EF08F0A2EF08F04F
:10113000000E0D6E000E0E6E000E0F6E000E106E85
:101140003AEF0AF013500D02F3CF24F0F4CF25F05C
:1011500024501A6E1B6A1C6A1D6A2550206E216A73
:10116000226A236A12500E02F3CF24F0F4CF25F046
:1011700024501A26000E1B221C221D222550202638
:10118000000E21222222232211500F02F3CF24F03D
:10119000F4CF25F024501A26000E1B221C221D22FB
:1011A00025502026000E2122222223221CC01DF0C1
:1011B0001BC01CF01AC01BF01A6A11500E02F3CFAC
:1011C00024F0F4CF25F024501A2625501B22000EBF
:1011D0001C22000E1D2212500D02F3CF24F0F4CF7A
:1011E00025F024501A2625501B22000E1C22000E2A
:1011F0001D221CC01DF01BC01CF01AC01BF01A6A77
:1012000011500D02F3CF24F0F4CF25F024501A260C
:1012100025501B22000E1C22000E1D2213500E0210
:10122000F3CF24F0F4CF25F024502026255021229E
:10123000000E2222000E232212500F02F3CF24F0C0
:10124000F4CF25F02450202625502122000E222202
:10125000000E232213500F02F3CF24F0F4CF25F019
:101260002450156E2550166E176A186A17C018F0AC
:1012700016C017F015C016F0156A15502026165026
:10128000212217502222185023221AC015F01BC009
:1012900016F01CC017F01DC018F0190E55EF09F01C
:1012A000D8901832173216321532E82E50EF09F066
:1012B0001550202616502122175022221850232282
:1012C0001CC01DF01BC01CF01AC01BF01A6A1E5077
:1012D0001FC015F0166A1526000E1622820E152460
:1012E000246EFF0E1620256E8BEF09F0D890203665
:1012F0002136223623361DAE80EF09F082EF09F049
:1013000083EF09F02080D8901A361B361C361D3624
:101310002406D8A0250622AE90EF09F092EF09F03E
:1013200076EF09F0000E1E6E1DAE99EF09F09BEFEF
:1013300009F0BFEF09F0FF0E1A14156EFF0E1B1413
:10134000166EFF0E1C14176E7F0E1D14186E1550AE
:10135000161017101810D8B4B0EF09F0B2EF09F05A
:10136000B6EF09F0010E1E6EBFEF09F020A0BBEF33
:1013700009F0BDEF09F0BFEF09F0B2EF09F01E5020
:10138000D8B4C5EF09F0C7EF09F0EBEF09F0010E93
:101390002026000E21222222232223A0D2EF09F0B0
:1013A000D4EF09F0EBEF09F020C015F021C016F0E2
:1013B00022C017F023C018F0183418321732163232
:1013C000153215C020F016C021F017C022F018C049
:1013D00023F0244A252A25BEF6EF09F0255008E11E
:1013E0002428D8A0F6EF09F0F8EF09F002EF0AF090
:1013F000000E206E000E216E800E226E7F0E236E78
:1014000030EF0AF025BE0FEF0AF0255006E1240464
:10141000D8B00DEF0AF00FEF0AF01BEF0AF0000E44
:10142000206E000E216E000E226E000E236E000E46
:10143000196E30EF0AF024C01FF0FF0E2016FF0EC9
:1014400021167F0E2216000E23161FA02AEF0AF087
:101450002CEF0AF02DEF0AF0228ED8901F30236E69
:101460001950231220C00DF021C00EF022C00FF041
:1014700023C010F0120026C00DF027C00EF028C0C7
:101480000FF029C010F0900E116E3E0E126E7A0E03
:10149000136E3F0E146E26EC08F00DC035F00EC032
:1014A00036F00FC037F010C038F035C00DF036C040
:1014B0000EF037C00FF038C010F05EEC0CF00E34B8
:1014C0000E320D320E340E320D320D500F015E6FA2
:1014D00035C00DF036C00EF037C00FF038C010F038
:1014E0005EEC0CF0030E0D160D3AF00E0D160F010A
:1014F0005D510F0B0D105D6F2AC00DF02BC00EF06B
:101500002CC00FF02DC010F0900E116E3E0E126E1A
:101510007A0E136E3F0E146E26EC08F00DC031F0FB
:101520000EC032F00FC033F010C034F031C00DF0F7
:1015300032C00EF033C00FF034C010F05EEC0CF08F
:101540000E340E320D320E340E320D320D500F01AC
:10155000556F31C00DF032C00EF033C00FF034C003
:1015600010F05EEC0CF0030E0D160D3AF00E0D1699
:101570000F015D510F0B0D10546F460E2E18D8A49D
:10158000C4EF0AF0C6EF0AF0CCEF0AF08C888C9A10
:101590008C9C8C8E08EF0BF0420E2E18D8A4D3EF43
:1015A0000AF0D5EF0AF0DBEF0AF08C988C8A8C8C6D
:1015B0008C9E08EF0BF0520E2E18D8A4E2EF0AF022
:1015C000E4EF0AF0EAEF0AF08C988C8A8C8C8C9EFF
:1015D00008EF0BF04C0E2E18D8A4F1EF0AF0F3EF41
:1015E0000AF0F9EF0AF08C988C8A8C8C8C9E08EFAC
:1015F0000BF0540E2E18D8A400EF0BF002EF0BF0F6
:1016000008EF0BF08C988C9A8C9C8C9E08EF0BF05A
:1016100012009EAA0EEF0BF010EF0BF0B3EF0BF0E1
:10162000AECF3AF04D0E3A18D8A419EF0BF01BEFDD
:101630000BF02FEF0BF0010E036E000E25EC0EF0F9
:10164000800E036E000E25EC0EF0320E056E8EEC51
:101650000DF0300E396E4D0E3B6EB3EF0BF0410EB8
:101660003A18D8A436EF0BF038EF0BF04AEF0BF036
:10167000010E036E000E25EC0EF0C00E036E000E80
:1016800025EC0EF0230E056E8EEC0DF0410E3B6E38
:10169000B3EF0BF0530E3A18D8A451EF0BF053EF01
:1016A0000BF065EF0BF0010E036E000E25EC0EF053
:1016B000940E036E000E25EC0EF0410E056E8EECBE
:1016C0000DF0530E3B6EB3EF0BF0460E3A18D8A454
:1016D0006CEF0BF06EEF0BF072EF0BF0460E396E05
:1016E000B3EF0BF0420E3A18D8A479EF0BF07BEF72
:1016F0000BF07FEF0BF0420E396EB3EF0BF0540E90
:101700003A18D8A486EF0BF088EF0BF08CEF0BF0B3
:10171000540E396EB3EF0BF0520E3A18D8A493EF73
:101720000BF095EF0BF099EF0BF0520E396EB3EF13
:101730000BF04C0E3A18D8A4A0EF0BF0A2EF0BF070
:10174000A6EF0BF04C0E396EB3EF0BF0450E3A18C6
:10175000D8A4ADEF0BF0AFEF0BF0B3EF0BF0650ECD
:10176000396EB3EF0BF012002F6E460E2F18D8A46F
:10177000BCEF0BF0BEEF0BF0D4EF0BF0000E266EBB
:10178000C00E276E7F0E286E440E296E000E2A6E44
:10179000C00E2B6E7F0E2C6E440E2D6E460E2E6EDE
:1017A0003BEC0AF05DEF0CF0420E2F18D8A4DBEFF3
:1017B0000BF0DDEF0BF0F3EF0BF0000E266EC00E1A
:1017C000276E7F0E286E440E296E000E2A6EC00E04
:1017D0002B6E7F0E2C6E440E2D6E420E2E6E3BEC49
:1017E0000AF05DEF0CF0540E2F18D8A4FAEF0BF0AE
:1017F000FCEF0BF012EF0CF0000E266E000E276EC1
:10180000000E286E000E296E000E2A6E000E2B6E42
:10181000000E2C6E000E2D6E540E2E6E3BEC0AF058
:101820005DEF0CF0520E2F18D8A419EF0CF01BEF3F
:101830000CF031EF0CF0330E266EB30E276E7F0ED8
:10184000286E430E296E000E2A6EC00E2B6E7F0E80
:101850002C6E440E2D6E4C0E2E6E3BEC0AF05DEF9E
:101860000CF04C0E2F18D8A438EF0CF03AEF0CF017
:1018700050EF0CF0000E266EC00E276E7F0E286E05
:10188000440E296E330E2A6EB30E2B6E7F0E2C6E15
:10189000430E2D6E520E2E6E3BEC0AF05DEF0CF0F7
:1018A000650E2F18D8A457EF0CF059EF0CF05DEF30
:1018B0000CF0690E3B6E5DEF0CF012000F3410342B
:1018C000166E1650D8A467EF0CF069EF0CF073EFAA
:1018D0000CF0000E0D6E000E0E6E000E0F6E000E60
:1018E000106EE0EF0CF00DC011F00EC012F00FC042
:1018F00013F010C014F0200E83EF0CF0D8901432C7
:10190000133212321132E82E7EEF0CF01150156EA8
:101910000F8EFF0E0D16FF0E0E16FF0E0F16000E89
:101920001016960E165E16BE9AEF0CF098EF0CF09D
:10193000B0EF0CF01650800A970FD8B0A2EF0CF061
:10194000A4EF0CF0A6EF0CF069EF0CF0D890103279
:101950000F320E320D32163EA6EF0CF0C8EF0CF02F
:101960001F0E1664B6EF0CF0B8EF0CF0C0EF0CF0E1
:1019700069EF0CF0D8900D360E360F36103616067D
:101980001650D8A4C6EF0CF0C8EF0CF0BAEF0CF06C
:101990001550D8B4CEEF0CF0D0EF0CF0D8EF0CF01F
:1019A000101E0F1E0E1E0D6C000E0E220F22102296
:1019B0000DC00DF00EC00EF00FC00FF010C010F0F3
:1019C0001200030E126E080E116E770EE82EFED76F
:1019D000112EFCD7122EFAD70000300E0F6E000E1B
:1019E00016EC0EF01A0E116EF80EE82EFED7112E20
:1019F000FCD700D0300E0F6E000E16EC0EF01A0E53
:101A0000116EF80EE82EFED7112EFCD700D0300E46
:101A10000F6E000E16EC0EF0020E0F6E000E16EC9E
:101A20000EF0060E0F6E000E16EC0EF00F0E0F6E7F
:101A3000000E16EC0EF0280E0F6E000E16EC0EF0D7
:101A4000010E0F6E000E16EC0EF0030E126E080E55
:101A5000116E770EE82EFED7112EFCD7122EFAD774
:101A600000001200720ED36E000E0F013A6F000ECE
:101A70003B6F000E3C6F9498949A000E956E000E8A
:101A8000966E8B988B9A000E8C6E000E8D6EF28E79
:101A9000F28CD08E9D8A9E9A670EAF6E948C948E37
:101AA000AC9CAC8AAC98AC84AB8EAB9CAB88B89643
:101AB000F90EBB6E000EBA6E0C0E5D6FFA0E5E6F05
:101AC0000C0E546FFA0E556FBA841200306E4D0E24
:101AD0003018D8A46EEF0DF070EF0DF075EF0DF02B
:101AE0003950B4EC0BF08DEF0DF0530E3018D8A434
:101AF0007CEF0DF07EEF0DF082EF0DF03FEC0EF07D
:101B00008DEF0DF0410E3018D8A489EF0DF08BEF5A
:101B10000DF08DEF0DF040EC0EF01200000E076E90
:101B20009EEF0DF005500724066E06C0F6FF080074
:101B3000F5CF03F0010E25EC0EF0072A055007241F
:101B4000066E06C0F6FF0800F5500009D8A4ABEFFA
:101B50000DF0ADEF0DF092EF0DF012000E6E8B8ACE
:101B60004E0E0D6EEB0EE82EFED70D2EFCD70000AC
:101B70000EC08CFF4E0E0D6EEB0EE82EFED70D2E16
:101B8000FCD700008B9A4E0E0D6EEB0EE82EFED7A2
:101B90000D2EFCD700001200026E8B8A4E0E016ED5
:101BA000EB0EE82EFED7012EFCD7000002C08CFF02
:101BB0004E0E016EEB0EE82EFED7012EFCD7000074
:101BC0008B9A4E0E016EEB0EE82EFED7012EFCD73F
:101BD00000001200820EF66E1C0EF76E000EF86EFC
:101BE0000900F5CF3BF000EE31F00A0EEE6AE80690
:101BF000FDE13C903C92000EF86E100EF76E000175
:101C000034EF0EF0F6CF08F0F7CF09F0F8CF0AF076
:101C1000F5CF0BF009EC0BF00BC0F5FF0AC0F8FF95
:101C200009C0F7FF08C0F6FF3C921100106E10B01B
:101C300002D08B9801D08B880F380F0BAEEC0DF0D3
:101C40000F500F0BAEEC0DF01200046E04B002D07A
:101C50008B9801D08B8803380F0BCCEC0DF0035020
:101C60000F0BCCEC0DF0120032EC0DF0E1EC0CF0AF
:101C70003B5066EC0DF038EF0EF013EF00F0120061
:031C8000120069E6
:020000040030CA
:0E000000FF281F3CFFBB81FF0FC00FE00F4029
:00000001FF
