:0400000013EF00F00A
:0600080036827DEF0DF0D1
:100018003680E0CF29F029C0E0FF3690100099EF34
:020028000DF0D9
:1010000000526F626F74696320506C6174666F7216
:101010006D0052657365617263682050726F6A6516
:101020006374004175746F6D61746963204D6F6402
:1010300065002020204D616E75616C204D6F6465E8
:101040000053656D69204D6F646500000450800B8E
:101050000D6E04500424136E03AE31EF08F033EF2D
:1010600008F034EF08F013801350D8B43AEF08F0CA
:101070003CEF08F04FEF08F01328D8A442EF08F037
:1010800044EF08F04CEF08F0000E016E000E026E07
:10109000000E036E000E046E038E57EF08F0000E74
:1010A000016E000E026E000E036E000E046E0850FC
:1010B000800B0D1A08500824126E07AE62EF08F07C
:1010C00064EF08F065EF08F012801250D8B46BEFAF
:1010D00008F06DEF08F080EF08F01228D8A473EF45
:1010E00008F075EF08F07DEF08F0000E056E000EB9
:1010F000066E000E076E000E086E078E88EF08F071
:10110000000E056E000E066E000E076E000E086ED5
:101110001250D8B48EEF08F090EF08F098EF08F076
:101120001350D8A496EF08F098EF08F0A2EF08F05B
:10113000000E016E000E026E000E036E000E046EB5
:101140003AEF0AF007500102F3CF18F0F4CF19F08C
:1011500018500E6E0F6A106A116A1950146E156AD3
:10116000166A176A06500202F3CF18F0F4CF19F08E
:1011700018500E26000E0F2210221122195014268C
:10118000000E15221622172205500302F3CF18F085
:10119000F4CF19F018500E26000E0F221022112243
:1011A00019501426000E15221622172210C011F015
:1011B0000FC010F00EC00FF00E6A05500202F3CF00
:1011C00018F0F4CF19F018500E2619500F22000E07
:1011D0001022000E112206500102F3CF18F0F4CFB6
:1011E00019F018500E2619500F22000E1022000E72
:1011F000112210C011F00FC010F00EC00FF00E6AD7
:1012000005500102F3CF18F0F4CF19F018500E2654
:1012100019500F22000E1022000E11220750020258
:10122000F3CF18F0F4CF19F01850142619501522E6
:10123000000E1622000E172206500302F3CF18F0FC
:10124000F4CF19F01850142619501522000E16224A
:10125000000E172207500302F3CF18F0F4CF19F055
:101260001850096E19500A6E0B6A0C6A0BC00CF00C
:101270000AC00BF009C00AF0096A095014260A5086
:1012800015220B5016220C5017220EC009F00FC069
:101290000AF010C00BF011C00CF0190E55EF09F058
:1012A000D8900C320B320A320932E82E50EF09F096
:1012B000095014260A5015220B5016220C501722E2
:1012C00010C011F00FC010F00EC00FF00E6A1250D7
:1012D00013C009F00A6A0926000E0A22820E0924A8
:1012E000186EFF0E0A20196E8BEF09F0D890143695
:1012F00015361636173611AE80EF09F082EF09F079
:1013000083EF09F01480D8900E360F361036113660
:101310001806D8A0190616AE90EF09F092EF09F062
:1013200076EF09F0000E126E11AE99EF09F09BEF07
:1013300009F0BFEF09F0FF0E0E14096EFF0E0F1437
:101340000A6EFF0E10140B6E7F0E11140C6E0950F6
:101350000A100B100C10D8B4B0EF09F0B2EF09F07E
:10136000B6EF09F0010E126EBFEF09F014A0BBEF4B
:1013700009F0BDEF09F0BFEF09F0B2EF09F012502C
:10138000D8B4C5EF09F0C7EF09F0EBEF09F0010E93
:101390001426000E15221622172217A0D2EF09F0EC
:1013A000D4EF09F0EBEF09F014C009F015C00AF012
:1013B00016C00BF017C00CF00C340C320B320A3292
:1013C000093209C014F00AC015F00BC016F00CC0A9
:1013D00017F0184A192A19BEF6EF09F0195008E15A
:1013E0001828D8A0F6EF09F0F8EF09F002EF0AF09C
:1013F000000E146E000E156E800E166E7F0E176EA8
:1014000030EF0AF019BE0FEF0AF0195006E1180488
:10141000D8B00DEF0AF00FEF0AF01BEF0AF0000E44
:10142000146E000E156E000E166E000E176E000E76
:101430000D6E30EF0AF018C013F0FF0E1416FF0EF9
:1014400015167F0E1616000E171613A02AEF0AF0B7
:101450002CEF0AF02DEF0AF0168ED8901330176E8D
:101460000D50171214C001F015C002F016C003F0A1
:1014700017C004F012009EAA40EF0AF042EF0AF0F3
:101480003FEF0BF0AECF34F04D0E3418D8A44BEF35
:101490000AF04DEF0AF061EF0AF0010E036E000E44
:1014A000C4EC0DF0800E036E000EC4EC0DF0320E95
:1014B000056E20EC0DF0300E336E4D0E356E3FEFA5
:1014C0000BF0410E3418D8A468EF0AF06AEF0AF066
:1014D0007EEF0AF0010E036E000EC4EC0DF0C00E9C
:1014E000036E000EC4EC0DF0230E056E20EC0DF023
:1014F000300E336E410E356E3FEF0BF0530E341845
:10150000D8A485EF0AF087EF0AF09BEF0AF0010EEE
:10151000036E000EC4EC0DF0940E036E000EC4ECCE
:101520000DF0410E056E20EC0DF0300E336E530EB3
:10153000356E3FEF0BF0460E3418D8A4A2EF0AF038
:10154000A4EF0AF0C3EF0AF04D0E3518D8A4ABEFA4
:101550000AF0ADEF0AF0C3EF0AF0000E1A6EC00EEB
:101560001B6E7F0E1C6E440E1D6E000E1E6EC00E96
:101570001F6E7F0E206E440E216E460E226E40ECD2
:101580000BF03FEF0BF0420E3418D8A4CAEF0AF06C
:10159000CCEF0AF0EBEF0AF04D0E3518D8A4D3EFDC
:1015A0000AF0D5EF0AF0EBEF0AF0000E1A6EC00E4B
:1015B0001B6E7F0E1C6E440E1D6E000E1E6EC00E46
:1015C0001F6E7F0E206E440E216E420E226E40EC86
:1015D0000BF03FEF0BF0540E3418D8A4F2EF0AF0E2
:1015E000F4EF0AF013EF0BF04D0E3518D8A4FBEF13
:1015F0000AF0FDEF0AF013EF0BF0000E1A6E000E6A
:101600001B6E000E1C6E000E1D6E000E1E6E000E78
:101610001F6E000E206E000E216E540E226E40ECE6
:101620000BF03FEF0BF0520E3418D8A41AEF0BF06A
:101630001CEF0BF029EF0BF04D0E3518D8A423EF5B
:101640000BF025EF0BF029EF0BF0520E336E3FEF4E
:101650000BF04C0E3418D8A430EF0BF032EF0BF037
:101660003FEF0BF04D0E3518D8A439EF0BF03BEFE0
:101670000BF03FEF0BF04C0E336E3FEF0BF0120010
:101680001AC001F01BC002F01CC003F01DC004F022
:10169000900E056E3E0E066E7A0E076E3F0E086EB9
:1016A00026EC08F001C02FF002C030F003C031F08A
:1016B00004C032F02FC001F030C002F031C003F09E
:1016C00032C004F00EEC0CF002340232013202346B
:1016D0000232013201500F015E6F2FC001F030C0A5
:1016E00002F031C003F032C004F00EEC0CF0030E37
:1016F0000116013AF00E01160F015D510F0B01109A
:101700005D6F1EC001F01FC002F020C003F021C0B9
:1017100004F0900E056E3E0E066E7A0E076E3F0EBA
:10172000086E26EC08F001C02BF002C02CF003C0BC
:101730002DF004C02EF02BC001F02CC002F02DC003
:1017400003F02EC004F00EEC0CF002340232013231
:1017500002340232013201500F01556F2BC001F0EB
:101760002CC002F02DC003F02EC004F00EEC0CF0E3
:10177000030E0116013AF00E01160F015D510F0B19
:101780000110546F460E2218D8A4C9EF0BF0CBEF0E
:101790000BF0D1EF0BF08C888C9A8C9C8C8E0DEF1B
:1017A0000CF0420E2218D8A4D8EF0BF0DAEF0BF0B1
:1017B000E0EF0BF08C988C8A8C8C8C9E0DEF0CF0EB
:1017C000520E2218D8A4E7EF0BF0E9EF0BF0EFEF81
:1017D0000BF08C888C9A8C9C8C8E0DEF0CF04C0E40
:1017E0002218D8A4F6EF0BF0F8EF0BF0FEEF0BF099
:1017F0008C888C9A8C9C8C8E0DEF0CF0540E2218D9
:10180000D8A405EF0CF007EF0CF00DEF0CF08C985E
:101810008C9A8C9C8C9E0DEF0CF0120003340434D7
:101820000A6E0A50D8A417EF0CF019EF0CF023EF52
:101830000CF0000E016E000E026E000E036E000E24
:10184000046E90EF0CF001C005F002C006F003C07A
:1018500007F004C008F0200E33EF0CF0D8900832E7
:10186000073206320532E82E2EEF0CF00550096ED5
:10187000038EFF0E0116FF0E0216FF0E0316000E5A
:101880000416960E0A5E0ABE4AEF0CF048EF0CF002
:1018900060EF0CF00A50800A970FD8B052EF0CF0AE
:1018A00054EF0CF056EF0CF019EF0CF0D890043216
:1018B0000332023201320A3E56EF0CF078EF0CF0A0
:1018C0001F0E0A6466EF0CF068EF0CF070EF0CF07E
:1018D00019EF0CF0D89001360236033604360A06AA
:1018E0000A50D8A476EF0CF078EF0CF06AEF0CF009
:1018F0000950D8B47EEF0CF080EF0CF088EF0CF0BC
:10190000041E031E021E016C000E0222032204228A
:1019100001C001F002C002F003C003F004C004F0F3
:101920001200030E0001646F080E636F770EE82E3D
:10193000FED7632FFCD7642FFAD7300E0001616FFA
:10194000000EB1EC0DF01A0E0001636FF80EE82ED8
:10195000FED7632FFCD70000300E0001616F000E30
:10196000B1EC0DF01A0E0001636FF80EE82EFED7F1
:10197000632FFCD70000300E0001616F000EB1EC48
:101980000DF0020E0001616F000EB1EC0DF0060EBD
:101990000001616F000EB1EC0DF00F0E0001616FE0
:1019A000000EB1EC0DF0280E0001616F000EB1ECDD
:1019B0000DF0010E0001616F000EB1EC0DF0030E91
:1019C0000001646F080E636F770EE82EFED7632F59
:1019D000FCD7642FFAD71200720ED36E000E0F01DF
:1019E0003A6F000E3B6F000E3C6F9498949A000E75
:1019F000956E000E966E8B988B9A000E8C6E000E74
:101A00008D6EF28EF28CD08E9D8A9E9A670EAF6E8E
:101A1000948C948EAC9CAC8AAC98AC84AB8EAB9C12
:101A2000AB88B896F90EBB6E000EBA6E0C0E5D6FE9
:101A3000FA0E5E6F0C0E546FFA0E556FBA841200D8
:101A4000000E076E30EF0DF005500724066E06C03D
:101A5000F6FF0800F5CF03F0010EC4EC0DF0072AE5
:101A600005500724066E06C0F6FF0800F550000971
:101A7000D8A43DEF0DF03FEF0DF024EF0DF0120074
:101A80000001606F8B8A4E0E2A6EEB0EE82EFED799
:101A90002A2EFCD7000060C08CFF4E0E2A6EEB0E83
:101AA000E82EFED72A2EFCD700008B9A4E0E2A6E07
:101AB000EB0EE82EFED72A2EFCD700001200026E95
:101AC0008B8A4E0E016EEB0EE82EFED7012EFCD750
:101AD000000002C08CFF4E0E016EEB0EE82EFED70A
:101AE000012EFCD700008B9A4E0E016EEB0EE82EF5
:101AF000FED7012EFCD700001200F3CF23F0F4CF65
:101B000024F0F6CF25F0F7CF26F0F8CF27F0F5CF69
:101B100028F03BEC0AF028C0F5FF27C0F8FF26C0EC
:101B2000F7FF25C0F6FF24C0F4FF23C0F3FF369271
:101B30001100B60EF66E1B0EF76E000EF86E090061
:101B4000F5CF35F000EE2BF00A0EEE6AE806FDE167
:101B500036903692000EF86E100EF76E0001D3EF3D
:101B60000DF00001626F000162B102D08B9801D0CC
:101B70008B88000161390F0B40EC0DF000016151C1
:101B80000F0B40EC0DF01200046E04B002D08B98E5
:101B900001D08B8803380F0B5FEC0DF003500F0B57
:101BA0005FEC0DF01200ECEC0CF091EC0CF0D7EFC8
:071BB0000DF013EF00F069D6
:020000040030CA
:0E000000FF281F3CFFBB81FF0FC00FE00F4029
:00000001FF
