:0400000013EF00F00A
:060008000A82D3EF08F0AC
:100018000A80E0CF02F002C0E0FF0A901000DEEF95
:0200280008F0DE
:1010000000526F626F74696320506C6174666F7216
:101010006D0052657365617263682050726F6A6516
:1010200063740000020E086E380E076EAD0EE82ED7
:10103000FED7072EFCD7082EFAD70000300E056E1B
:10104000000EC5EC08F01A0E076EF80EE82EFED75B
:10105000072EFCD700D0300E056E000EC5EC08F050
:101060001A0E076EF80EE82EFED7072EFCD700D01A
:10107000300E056E000EC5EC08F0020E056E000E77
:10108000C5EC08F0060E056E000EC5EC08F00F0E5C
:10109000056E000EC5EC08F0280E056E000EC5ECBE
:1010A00008F0010E056E000EC5EC08F0030E086E88
:1010B000080E076E770EE82EFED7072EFCD7082EF7
:1010C000FAD700001200720ED36E000E0F013A6FB5
:1010D000000E3B6F000E3C6F9498949A000E956E34
:1010E000000E966E8B988B9A000E8C6E000E8D6E95
:1010F000F28EF28CD08E9D8A9E9A670EAF6E948C83
:10110000948EAC9CAC8AAC98AC84AB8EAB9CAB8818
:10111000B8961200AECF09F09CEF08F0A00EEEECEE
:1011200008F0A7EF08F0500EEEEC08F0A7EF08F07B
:10113000000E8C6EA7EF08F00950410AD8B493EF67
:1011400008F00C0AD8B48EEF08F098EF08F01200FF
:10115000046E8B8A4E0E036EEB0EE82EFED7032E26
:10116000FCD7000004C08CFF4E0E036EEB0EE82E81
:10117000FED7032EFCD700008B9A340E036EF20EBE
:10118000E82EFED7032EFCD71200066E06B002D062
:101190008B9801D08B8805380F0BA8EC08F0055010
:1011A000A8EC08F012009EAAD8EF08F0DAEF08F0D9
:1011B000DCEF08F08AEC08F00A921100096A0A9044
:1011C0000A92000EF86E0001E6EF08F063EC08F0FA
:1011D00012EC08F0EAEF08F013EF00F0016E8D80DA
:0811E0008D8401C08CFF120098
:020000040030CA
:0E000000FF281F3CFFBF81FF0FC00FE00F4025
:00000001FF
