:0400000013EF00F00A
:0600080015823CEF09F037
:100018001580E0CF0CF00CC0E0FF1590100084EFC5
:0200280009F0DD
:1010000000526F626F74696320506C6174666F7216
:101010006D004461746120746573743A204100501E
:101020006C6174666F726D210000020E126E380ED4
:10103000116EAD0EE82EFED7112EFCD7122EFAD768
:101040000000300E0F6E000E68EC09F01A0E116EE3
:10105000F80EE82EFED7112EFCD700D0300E0F6E02
:10106000000E68EC09F01A0E116EF80EE82EFED78D
:10107000112EFCD700D0300E0F6E000E68EC09F078
:10108000020E0F6E000E68EC09F0060E0F6E000ED9
:1010900068EC09F00F0E0F6E000E68EC09F0280ED8
:1010A0000F6E000E68EC09F0010E0F6E000E68EC7A
:1010B00009F0030E126E080E116E770EE82EFED7A1
:1010C000112EFCD7122EFAD700001200AECF14F06A
:1010D000410E1418D8A46FEF08F071EF08F07CEF00
:1010E00008F0800E036E000E76EC09F0120E056E0D
:1010F000E0EC08F09EEF08F0420E1418D8A483EF3D
:1011000008F085EF08F090EF08F0D40E036E000EA3
:1011100076EC09F01F0E056EE0EC08F09EEF08F08B
:10112000430E1418D8A497EF08F099EF08F09EEF3B
:1011300008F0010E036E000E76EC09F01200720E3C
:10114000D36E000E0F013A6F000E3B6F9498949A85
:10115000000E956E8B988B9A000E8C6EF28EF28C30
:10116000D08E9D8A9E9A670EAF6E948C948EAC9CA6
:10117000AC8AAC98AC84AB8EAB9CAB88B8961200B2
:10118000000E136ED0EF08F011501324126E12C02F
:10119000F6FF0800F5CF0FF0010E68EC09F0132AF6
:1011A00011501324126E12C0F6FF0800F55000090A
:1011B000D8A4DDEF08F0DFEF08F0C4EF08F012006C
:1011C000000E076EF0EF08F005500724066E06C00B
:1011D000F6FF0800F5CF03F0010E76EC09F0072AC0
:1011E00005500724066E06C0F6FF0800F5500009FA
:1011F000D8A4FDEF08F0FFEF08F0E4EF08F01200CC
:101200000E6E8B8A4E0E0D6EEB0EE82EFED70D2E57
:10121000FCD700000EC08CFF4E0E0D6EEB0EE82EBC
:10122000FED70D2EFCD700008B9A4E0E0D6EEB0EE6
:10123000E82EFED70D2EFCD700001200026E8B8A1E
:101240004E0E016EEB0EE82EFED7012EFCD70000ED
:1012500002C08CFF4E0E016EEB0EE82EFED7012E63
:10126000FCD700008B9A4E0E016EEB0EE82EFED7D7
:10127000012EFCD700001200F6CF08F0F7CF09F0DE
:10128000F8CF0AF0F5CF0BF09EAA49EF09F04BEF2B
:1012900009F04DEF09F066EC08F00BC0F5FF0AC04D
:1012A000F8FF09C0F7FF08C0F6FF159211009FEC88
:1012B00008F015EC08F0C00E0F6E000E68EC09F097
:1012C000010E116EC0EC08F064EF09F013EF00F0AE
:1012D000106E10B002D08B9801D08B880F380F0B96
:1012E00000EC09F00F5000EC09F01200046E04B09D
:1012F00002D08B9801D08B8803380F0B1EEC09F0BD
:1013000003501EEC09F01200146A15901592000E9D
:0C131000F86E100EF76E000157EF09F0A8
:020000040030CA
:0E000000FF281F3CFFBF81FF0FC00FE00F4025
:00000001FF
