:0400000020EF00F0FD
:100008001482F6CF08F0F7CF09F0F8CF0AF0F5CF51
:100018000BF09EAA12EF00F014EF00F016EF00F0BC
:1000280064EC08F00BC0F5FF0AC0F8FF09C0F7FF41
:0C00380008C0F6FF1492110067EF09F0F9
:101000000048656C6C6F20576F726C6421004461FE
:10101000746120746573743A204100506C61746689
:101020006F726D210000020E116E380E106EAD0E43
:10103000E82EFED7102EFCD7112EFAD70000300E66
:101040000E6E000E4BEC09F01A0E106EF80EE82E24
:10105000FED7102EFCD700D0300E0E6E000E4BECDB
:1010600009F01A0E106EF80EE82EFED7102EFCD7DF
:1010700000D0300E0E6E000E4BEC09F0020E0E6E1C
:10108000000E4BEC09F0060E0E6E000E4BEC09F054
:101090000F0E0E6E000E4BEC09F0280E0E6E000EB9
:1010A0004BEC09F0010E0E6E000E4BEC09F0030E36
:1010B000116E080E106E770EE82EFED7102EFCD79C
:1010C000112EFAD700001200AECF13F0410E131804
:1010D000D8A46DEF08F06FEF08F07AEF08F0800EFB
:1010E000036E000E59EC09F00E0E056EDEEC08F0F2
:1010F0009CEF08F0420E1318D8A481EF08F083EF9C
:1011000008F08EEF08F0D40E036E000E59EC09F0D3
:101110001B0E056EDEEC08F09CEF08F0430E131872
:10112000D8A495EF08F097EF08F09CEF08F0010EB7
:10113000036E000E59EC09F01200720ED36E000E11
:101140000F013A6F000E3B6F9498949A000E956EC3
:101150008B988B9A000E8C6EF28EF28CD09E9D8AAC
:101160009E9A670EAF6E948C948EAC9CAC8AAC98B1
:10117000AC84AB8EAB9CAB88B8961200000E126E9E
:10118000CEEF08F010501224116E11C0F6FF0800C7
:10119000F5CF0EF0010E4BEC09F0122A105012247C
:1011A000116E11C0F6FF0800F5500009D8A4DBEF5E
:1011B00008F0DDEF08F0C2EF08F01200000E076E35
:1011C000EEEF08F005500724066E06C0F6FF080093
:1011D000F5CF03F0010E59EC09F0072A055007245A
:1011E000066E06C0F6FF0800F5500009D8A4FBEF14
:1011F00008F0FDEF08F0E2EF08F012000D6E8B8AA8
:101200004E0E0C6EEB0EE82EFED70C2EFCD7000017
:101210000DC08CFF4E0E0C6EEB0EE82EFED70C2E82
:10122000FCD700008B9A4E0E0C6EEB0EE82EFED70C
:101230000C2EFCD700001200026E8B8A4E0E016E3F
:10124000EB0EE82EFED7012EFCD7000002C08CFF6B
:101250004E0E016EEB0EE82EFED7012EFCD70000DD
:101260008B9A4E0E016EEB0EE82EFED7012EFCD7A8
:10127000000012009DEC08F013EC08F0C00E0E6E9A
:10128000000E4BEC09F0010E106EBEEC08F047EFBB
:1012900009F020EF00F00F6E0FB002D08B9801D054
:1012A0008B880E380F0BFEEC08F00E50FEEC08F0A9
:1012B0001200046E04B002D08B9801D08B880338E2
:1012C0000F0B1CEC09F003501CEC09F01200136A20
:1012D00014901492000EF86E100EF76E00013AEFA3
:0212E00009F013
:020000040030CA
:0E000000FF281F3CFFBF81FF0FC00FE00F4025
:00000001FF
