:04000000D7EF08F03E
:0F1000000048656C6C6F20576F726C64210000A4
:10101000020E066E380E056EAD0EE82EFED7052EBA
:10102000FCD7062EFAD70000300E036E000EC9EC76
:1010300008F01A0E056EF80EE82EFED7052EFCD726
:1010400000D0300E036E000EC9EC08F01A0E056ECB
:10105000F80EE82EFED7052EFCD700D0300E036E1A
:10106000000EC9EC08F0020E036E000EC9EC08F089
:10107000060E036E000EC9EC08F00F0E036E000E94
:10108000C9EC08F0280E036E000EC9EC08F0010E42
:10109000036E000EC9EC08F0030E066E080E056E16
:1010A000770EE82EFED7052EFCD7062EFAD70000C5
:1010B0001200720ED36E000E0F013A6F000E3B6FDE
:1010C0009498949A000E956E8B988B9A000E8C6E65
:1010D000F28EF28CD09E9D8A9E9A670EAF6E948C93
:1010E000948EAC9CAC8AAC98AC84AB8EAB9CAB8839
:1010F000B8961200000E076E8AEF08F0055007241C
:10110000066E06C0F6FF0800F5CF03F0010EC9EC2D
:1011100008F0072A05500724066E06C0F6FF0800EF
:10112000F5500009D8A497EF08F099EF08F07EEF8A
:1011300008F01200026E8B8A4E0E016EEB0EE82E46
:10114000FED7012EFCD7000002C08CFF4E0E016EB0
:10115000EB0EE82EFED7012EFCD700008B9A4E0E28
:10116000016EEB0EE82EFED7012EFCD70000120018
:1011700059EC08F008EC08F0C00E036E000EC9EC44
:1011800008F0010E056E7AEC08F0C5EF08F000EFEC
:1011900000F0046E04B002D08B9801D08B88033825
:1011A0000F0B9AEC08F003509AEC08F01200000EB6
:0C11B000F86E100EF76E0001B8EF08F0AA
:020000040030CA
:0E000000FF281F3CFFBF81FF0FC00FE00F4025
:00000001FF
