:0400000013EF00F00A
:060008003B82EBEF0DF05E
:100018003B80E0CF0CF00CC0E0FF3B901000BFEF3E
:020028000DF0D9
:1010000000526F626F74696320506C6174666F7216
:101010006D0052657365617263682050726F6A6516
:101020006374004175746F6D61746963204D6F6402
:1010300065004D616E75616C204D6F646500536590
:091040006D69204D6F646500002C
:10104A001050800B196E105010241F6E0FAE30EF27
:10105A0008F032EF08F033EF08F01F801F50D8B4C1
:10106A0039EF08F03BEF08F04EEF08F01F28D8A43C
:10107A0041EF08F043EF08F04BEF08F0000E0D6E59
:10108A00000E0E6E000E0F6E000E106E0F8E56EFD3
:10109A0008F0000E0D6E000E0E6E000E0F6E000EA2
:1010AA00106E1450800B191A145014241E6E13AEAD
:1010BA0061EF08F063EF08F064EF08F01E801E503D
:1010CA00D8B46AEF08F06CEF08F07FEF08F01E283A
:1010DA00D8A472EF08F074EF08F07CEF08F0000E65
:1010EA00116E000E126E000E136E000E146E138E29
:1010FA0087EF08F0000E116E000E126E000E136ECE
:10110A00000E146E1E50D8B48DEF08F08FEF08F061
:10111A0097EF08F01F50D8A495EF08F097EF08F062
:10112A00A1EF08F0000E0D6E000E0E6E000E0F6E8F
:10113A00000E106E39EF0AF013500D02F3CF24F0AF
:10114A00F4CF25F024501A6E1B6A1C6A1D6A2550BA
:10115A00206E216A226A236A12500E02F3CF24F00B
:10116A00F4CF25F024501A26000E1B221C221D2221
:10117A0025502026000E21222222232211500F025E
:10118A00F3CF24F0F4CF25F024501A26000E1B22A8
:10119A001C221D2225502026000E21222222232233
:1011AA001CC01DF01BC01CF01AC01BF01A6A11509B
:1011BA000E02F3CF24F0F4CF25F024501A2625503E
:1011CA001B22000E1C22000E1D2212500D02F3CF0C
:1011DA0024F0F4CF25F024501A2625501B22000EA5
:1011EA001C22000E1D221CC01DF01BC01CF01AC0C0
:1011FA001BF01A6A11500D02F3CF24F0F4CF25F038
:10120A0024501A2625501B22000E1C22000E1D22D5
:10121A0013500E02F3CF24F0F4CF25F024502026E9
:10122A0025502122000E2222000E232212500F02E4
:10123A00F3CF24F0F4CF25F0245020262550212284
:10124A00000E2222000E232213500F02F3CF24F0A5
:10125A00F4CF25F02450156E2550166E176A186AB9
:10126A0017C018F016C017F015C016F0156A1550F9
:10127A0020261650212217502222185023221AC043
:10128A0015F01BC016F01CC017F01DC018F0190E7F
:10129A0054EF09F0D8901832173216321532E82E68
:1012AA004FEF09F0155020261650212217502222FE
:1012BA00185023221CC01DF01BC01CF01AC01BF0C2
:1012CA001A6A1E501FC015F0166A1526000E16223D
:1012DA00820E1524246EFF0E1620256E8AEF09F061
:1012EA00D89020362136223623361DAE7FEF09F0FC
:1012FA0081EF09F082EF09F02080D8901A361B3668
:10130A001C361D362406D8A0250622AE8FEF09F01A
:10131A0091EF09F075EF09F0000E1E6E1DAE98EF01
:10132A0009F09AEF09F0BEEF09F0FF0E1A14156ED4
:10133A00FF0E1B14166EFF0E1C14176E7F0E1D1463
:10134A00186E1550161017101810D8B4AFEF09F010
:10135A00B1EF09F0B5EF09F0010E1E6EBEEF09F00C
:10136A0020A0BAEF09F0BCEF09F0BEEF09F0B1EF27
:10137A0009F01E50D8B4C4EF09F0C6EF09F0EAEF3D
:10138A0009F0010E2026000E21222222232223A068
:10139A00D1EF09F0D3EF09F0EAEF09F020C015F018
:1013AA0021C016F022C017F023C018F018341832E2
:1013BA0017321632153215C020F016C021F017C0A8
:1013CA0022F018C023F0244A252A25BEF5EF09F099
:1013DA00255008E12428D8A0F5EF09F0F7EF09F025
:1013EA0001EF0AF0000E206E000E216E800E226EB2
:1013FA007F0E236E2FEF0AF025BE0EEF0AF025505E
:10140A0006E12404D8B00CEF0AF00EEF0AF01AEF46
:10141A000AF0000E206E000E216E000E226E000EE3
:10142A00236E000E196E2FEF0AF024C01FF0FF0E74
:10143A002016FF0E21167F0E2216000E23161FA05D
:10144A0029EF0AF02BEF0AF02CEF0AF0228ED8903F
:10145A001F30236E1950231220C00DF021C00EF048
:10146A0022C00FF023C010F0120026C00DF027C0D2
:10147A000EF028C00FF029C010F0900E116E3E0E2B
:10148A00126E7A0E136E3F0E146E25EC08F00DC024
:10149A0034F00EC035F00FC036F010C037F034C04B
:1014AA000DF035C00EF036C00FF037C010F05BEC0F
:1014BA000CF00E340E320D320E340E320D320D5047
:1014CA000F015E6F34C00DF035C00EF036C00FF05C
:1014DA0037C010F05BEC0CF0030E0D160D3AF00E4F
:1014EA000D160F015D510F0B0D105D6F2AC00DF027
:1014FA002BC00EF02CC00FF02DC010F0900E116E04
:10150A003E0E126E7A0E136E3F0E146E25EC08F024
:10151A000DC030F00EC031F00FC032F010C033F001
:10152A0030C00DF031C00EF032C00FF033C010F0F1
:10153A005BEC0CF00E340E320D320E340E320D32DC
:10154A000D500F01556F30C00DF031C00EF032C092
:10155A000FF033C010F05BEC0CF0030E0D160D3AD1
:10156A00F00E0D160F015D510F0B0D10546F460E44
:10157A002E18D8A4C3EF0AF0C5EF0AF0CBEF0AF091
:10158A008C888C9A8C9C8C8E07EF0BF0420E2E184E
:10159A00D8A4D2EF0AF0D4EF0AF0DAEF0AF08C9866
:1015AA008C8A8C8C8C9E07EF0BF0520E2E18D8A4C6
:1015BA00E1EF0AF0E3EF0AF0E9EF0AF08C888C9A7F
:1015CA008C9C8C9E07EF0BF04C0E2E18D8A4F0EFD3
:1015DA000AF0F2EF0AF0F8EF0AF08C988C9A8C8CE9
:1015EA008C9E07EF0BF0540E2E18D8A4FFEF0AF0CA
:1015FA0001EF0BF007EF0BF08C988C9A8C9C8C9E69
:10160A0007EF0BF012002F6E310E2F18D8A410EF2F
:10161A000BF012EF0BF028EF0BF0000E266EC00E47
:10162A00276E7F0E286E440E296E000E2A6EC00E9B
:10163A002B6E7F0E2C6E440E2D6E460E2E6E3AECDD
:10164A000AF0B1EF0BF0320E2F18D8A42FEF0BF0DF
:10165A0031EF0BF047EF0BF0000E266E000E276EEF
:10166A00000E286E000E296E000E2A6E000E2B6EDA
:10167A00000E2C6E000E2D6E540E2E6E3AEC0AF0F1
:10168A00B1EF0BF0330E2F18D8A44EEF0BF050EF3A
:10169A000BF066EF0BF0000E266EC00E276E7F0E63
:1016AA00286E440E296E000E2A6EC00E2B6E7F0E17
:1016BA002C6E440E2D6E420E2E6E3AEC0AF0B1EFED
:1016CA000BF0340E2F18D8A46DEF0BF06FEF0BF060
:1016DA0085EF0BF0000E266EC00E276EFF0E286EE9
:1016EA00430E296E000E2A6EC00E2B6E7F0E2C6ED4
:1016FA00440E2D6E4C0E2E6E3AEC0AF0B1EF0BF042
:10170A00350E2F18D8A48CEF0BF08EEF0BF0A4EF48
:10171A000BF0000E266EC00E276E7F0E286E440E4A
:10172A00296E000E2A6EC00E2B6EFF0E2C6E430E13
:10173A002D6E520E2E6E3AEC0AF0B1EF0BF0650EDA
:10174A002F18D8A4ABEF0BF0ADEF0BF0B1EF0BF005
:10175A00690E3A6EB1EF0BF012009EAAB7EF0BF0CA
:10176A00B9EF0BF05AEF0CF0AECF39F04D0E391835
:10177A00D8A4C2EF0BF0C4EF0BF0D6EF0BF0010EBA
:10178A00036E000E0EEC0EF0800E036E000E0EECD1
:10179A000EF0320E056E63EC0DF06D0E3A6E5AEFD6
:1017AA000CF0410E3918D8A4DDEF0BF0DFEF0BF087
:1017BA00F1EF0BF0010E036E000E0EEC0EF0C00EF0
:1017CA00036E000E0EEC0EF0230E056E63EC0DF0A8
:1017DA00610E3A6E5AEF0CF0530E3918D8A4F8EF8E
:1017EA000BF0FAEF0BF00CEF0CF0010E036E000E8B
:1017FA000EEC0EF0940E036E000E0EEC0EF03E0E82
:10180A00056E63EC0DF0730E3A6E5AEF0CF0310E62
:10181A003918D8A413EF0CF015EF0CF019EF0CF0EF
:10182A00310E386E5AEF0CF0320E3918D8A420EF68
:10183A000CF022EF0CF026EF0CF0320E386E5AEF55
:10184A000CF0330E3918D8A42DEF0CF02FEF0CF052
:10185A0033EF0CF0330E386E5AEF0CF0340E3918A1
:10186A00D8A43AEF0CF03CEF0CF040EF0CF0340E39
:10187A00386E5AEF0CF0350E3918D8A447EF0CF031
:10188A0049EF0CF04DEF0CF0350E386E5AEF0CF0B4
:10189A00450E3918D8A454EF0CF056EF0CF05AEF55
:1018AA000CF0650E386E5AEF0CF012000F3410343B
:1018BA00166E1650D8A464EF0CF066EF0CF070EFB9
:1018CA000CF0000E0D6E000E0E6E000E0F6E000E66
:1018DA00106EDDEF0CF00DC011F00EC012F00FC04B
:1018EA0013F010C014F0200E80EF0CF0D8901432D0
:1018FA00133212321132E82E7BEF0CF01150156EB2
:10190A000F8EFF0E0D16FF0E0E16FF0E0F16000E8F
:10191A001016960E165E16BE97EF0CF095EF0CF0A9
:10192A00ADEF0CF01650800A970FD8B09FEF0CF06D
:10193A00A1EF0CF0A3EF0CF066EF0CF0D890103288
:10194A000F320E320D32163EA3EF0CF0C5EF0CF03B
:10195A001F0E1664B3EF0CF0B5EF0CF0BDEF0CF0F0
:10196A0066EF0CF0D8900D360E360F361036160686
:10197A001650D8A4C3EF0CF0C5EF0CF0B7EF0CF07B
:10198A001550D8B4CBEF0CF0CDEF0CF0D5EF0CF02E
:10199A00101E0F1E0E1E0D6C000E0E220F2210229C
:1019AA000DC00DF00EC00EF00FC00FF010C010F0F9
:1019BA001200030E126E080E116E770EE82EFED775
:1019CA00112EFCD7122EFAD70000300E0F6E000E21
:1019DA00FFEC0DF01A0E116EF80EE82EFED7112E3E
:1019EA00FCD700D0300E0F6E000EFFEC0DF01A0E71
:1019FA00116EF80EE82EFED7112EFCD700D0300E4D
:101A0A000F6E000EFFEC0DF0020E0F6E000EFFECD3
:101A1A000DF0060E0F6E000EFFEC0DF00F0E0F6E9E
:101A2A00000EFFEC0DF0280E0F6E000EFFEC0DF00D
:101A3A00010E0F6E000EFFEC0DF0030E126E080E73
:101A4A00116E770EE82EFED7112EFCD7122EFAD77A
:101A5A0000001200720ED36E000E0F013A6F000ED4
:101A6A003B6F000E3C6F9498949A000E956E000E90
:101A7A00966E8B988B9A000E8C6E000E8D6EF28E7F
:101A8A00F28CD08E9D8A9E9A670EAF6E948C948E3D
:101A9A00AC9CAC8AAC98AC84AB8EAB9CAB88B89649
:101AAA00F90EBB6E000EBA6E0C0E5D6FFA0E5E6F0B
:101ABA000C0E546FFA0E556FBA841200000E076EA0
:101ACA0073EF0DF005500724066E06C0F6FF0800F6
:101ADA00F5CF03F0010E0EEC0EF0072A055007248D
:101AEA00066E06C0F6FF0800F5500009D8A480EF7C
:101AFA000DF082EF0DF067EF0DF012000E6E8B8A7B
:101B0A004E0E0D6EEB0EE82EFED70D2EFCD7000002
:101B1A000EC08CFF4E0E0D6EEB0EE82EFED70D2E6C
:101B2A00FCD700008B9A4E0E0D6EEB0EE82EFED7F8
:101B3A000D2EFCD700001200026E8B8A4E0E016E2B
:101B4A00EB0EE82EFED7012EFCD7000002C08CFF58
:101B5A004E0E016EEB0EE82EFED7012EFCD70000CA
:101B6A008B9A4E0E016EEB0EE82EFED7012EFCD795
:101B7A00000012003A0EF66E1C0EF76E000EF86E9A
:101B8A000900F5CF3AF000EE30F00A0EEE6AE806E8
:101B9A00FDE13B903B92000EF86E100EF76E0001CD
:101BAA00D7EF0DF02FEC0DF0DEEC0CF06D0E3A18BD
:101BBA00D8A4E2EF0DF0E4EF0DF0DBEF0DF03850B2
:101BCA0008EC0BF0DBEF0DF013EF00F0F6CF08F0A6
:101BDA00F7CF09F0F8CF0AF0F5CF0BF0B2EC0BF023
:101BEA000BC0F5FF0AC0F8FF09C0F7FF08C0F6FFEF
:101BFA003B921100106E10B002D08B9801D08B88E6
:101C0A000F380F0B83EC0DF00F500F0B83EC0DF018
:101C1A001200046E04B002D08B9801D08B8803386E
:101C2A000F0BA1EC0DF003500F0BA1EC0DF01200FD
:011C3A006940
:020000040030CA
:0E000000FF281F3CFFBB81FF0FC00FE00F4029
:00000001FF
