:0400000013EF00F00A
:060008000B8201EF09F07C
:100018000B80E0CF02F002C0E0FF0B9010000CEF65
:0200280009F0DD
:1010000000526F626F74696320506C6174666F7216
:031010006D000070
:10101400020E086E380E076EAD0EE82EFED7072EB0
:10102400FCD7082EFAD70000300E056E000EF3EC44
:1010340008F01A0E076EF80EE82EFED7072EFCD71E
:1010440000D0300E056E000EF3EC08F01A0E076E99
:10105400F80EE82EFED7072EFCD700D0300E056E12
:10106400000EF3EC08F0020E056E000EF3EC08F02F
:10107400060E056E000EF3EC08F00F0E056E000E62
:10108400F3EC08F0280E056E000EF3EC08F0010EE8
:10109400056E000EF3EC08F0030E086E080E076EE2
:1010A400770EE82EFED7072EFCD7082EFAD70000BD
:1010B4001200720ED36E000E0F013A6F000E3B6FDA
:1010C400000E3C6F9498949A000E956E000E966EE6
:1010D4008B988B9A000E8C6E000E8D6EF28EF28CB5
:1010E400D08E9D8A9E9A670EAF6E948C948EAC9C23
:1010F400AC8AAC98AC84AB8EAB9CAB88B89612002F
:10110400000E096E94EF08F007500924086E08C019
:10111400F6FF100EF76E0800F5CF05F0010EF3ECA4
:1011240008F0092A07500924086E08C0F6FF100EBB
:10113400F76E0800F5500009D8A4A3EF08F0A5EF56
:1011440008F086EF08F01200046E8B8A4E0E036ED0
:10115400EB0EE82EFED7032EFCD7000004C08CFF54
:101164004E0E036EEB0EE82EFED7032EFCD70000C6
:101174008B9A4E0E036EEB0EE82EFED7032EFCD791
:1011840000001200AECF0AF0D6EF08F0A00E14EC67
:1011940009F0E1EF08F0500E14EC09F0E1EF08F06B
:1011A400000E8C6EE1EF08F00A50410AD8B4CDEF7E
:1011B40008F00C0AD8B4C8EF08F0D2EF08F0120017
:1011C4005BEC08F00AEC08F0C00E056E000EF3ECC0
:1011D40008F0010E076E82EC08F0EFEF08F013EF51
:1011E40000F0066E06B002D08B9801D08B880538CB
:1011F4000F0BA6EC08F00550A6EC08F012009EAA0E
:1012040006EF09F008EF09F00AEF09F0C4EC08F062
:101214000B9211000A6A0B900B92000EF86E0001FB
:10122400E2EF08F0016E8D808D8401C08CFF120006
:020000040030CA
:0E000000FF281F3CFFBF81FF0FC00FE00F4025
:00000001FF
