:0400000013EF00F00A
:060008000C82DDEF08F0A0
:100018000C80E0CF04F004C0E0FF0C901000E8EF83
:0200280008F0DE
:1010000000526F626F74696320506C6174666F7216
:101010006D0052657365617263682050726F6A6516
:1010200063740000020E0A6E380E096EAD0EE82ED3
:10103000FED7092EFCD70A2EFAD700F0300E076E25
:10104000000ECFEC08F01A0E096EF80EE82EFED74F
:10105000092EFCD700D0300E076E000ECFEC08F042
:101060001A0E096EF80EE82EFED7092EFCD700D016
:10107000300E076E000ECFEC08F0020E076E000E69
:10108000CFEC08F0060E076E000ECFEC08F00F0E46
:10109000076E000ECFEC08F0280E076E000ECFECA6
:1010A00008F0010E076E000ECFEC08F0030E0A6E7A
:1010B000080E096E770EE82EFED7092EFCD70A2EF1
:1010C000FAD700F01200AECF0BF075EF08F0A00ECB
:1010D000F8EC08F08AEF08F0500EF8EC08F08AEF10
:1010E00008F0000E8C6E8AEF08F00B50026E036A57
:1010F0000350000AD8B47FEF08F071EF08F00250F7
:10110000410AD8B46CEF08F00C0AD8B467EF08F0C5
:1011100071EF08F01200720ED36E000E0F013A6FDD
:10112000000E3B6F000E3C6F9498949A000E956EE3
:10113000000E966E8B988B9A000E8C6E000E8D6E44
:10114000F28EF28CD08E9D8A9E9A670EAF6E948C32
:10115000948EAC9CAC8AAC98AC84AB8EAB9CAB88C8
:10116000B8961200066E8B8A4E0E056EEB0EE82EB8
:10117000FED7052EFCD700F006C08CFF4E0E056E84
:10118000EB0EE82EFED7052EFCD700F08B9A340E1E
:10119000056EF20EE82EFED7052EFCD71200086E63
:1011A00008B002D08B9801D08B8807380F0BB2ECB7
:1011B00008F00750B2EC08F012009EAAE2EF08F027
:1011C000E4EF08F0E6EF08F063EC08F00C92110091
:1011D0000B6A0C900C92000EF86E0001F0EF08F014
:1011E0008BEC08F012EC08F0F4EF08F013EF00F0CD
:0C11F000016E8D808D8401C08CFF120008
:020000040030CA
:0E000000FF281F3CFFBF81FF0FC00FE00F4025
:00000001FF
