:0400000013EF00F00A
:0600080034827FEF0CF0D2
:100018003480E0CF24F024C0E0FF3490100062EF79
:020028000CF0DA
:1010000000526F626F74696320506C6174666F7216
:101010006D0052657365617263682050726F6A6516
:10102000637400000450800B0D6E04500424136E92
:1010300003AE1DEF08F01FEF08F020EF08F013805B
:101040001350D8B426EF08F028EF08F03BEF08F073
:101050001328D8A42EEF08F030EF08F038EF08F08E
:10106000000E016E000E026E000E036E000E046E86
:10107000038E43EF08F0000E016E000E026E000EAC
:10108000036E000E046E0850800B0D1A08500824E1
:10109000126E07AE4EEF08F050EF08F051EF08F077
:1010A00012801250D8B457EF08F059EF08F06CEFE7
:1010B00008F01228D8A45FEF08F061EF08F069EF9C
:1010C00008F0000E056E000E066E000E076E000E94
:1010D000086E078E74EF08F0000E056E000E066EA7
:1010E000000E076E000E086E1250D8B47AEF08F0AA
:1010F0007CEF08F084EF08F01350D8A482EF08F0DA
:1011000084EF08F08EEF08F0000E016E000E026E04
:10111000000E036E000E046E26EF0AF00750010267
:10112000F3CF18F0F4CF19F018500E6E0F6A106A52
:10113000116A1950146E156A166A176A065002026F
:10114000F3CF18F0F4CF19F018500E26000E0F222E
:101150001022112219501426000E152216221722D1
:1011600005500302F3CF18F0F4CF19F018500E26F3
:10117000000E0F221022112219501426000E1522E3
:101180001622172210C011F00FC010F00EC00FF081
:101190000E6A05500202F3CF18F0F4CF19F0185080
:1011A0000E2619500F22000E1022000E112206509A
:1011B0000102F3CF18F0F4CF19F018500E26195091
:1011C0000F22000E1022000E112210C011F00FC0CD
:1011D00010F00EC00FF00E6A05500102F3CF18F0A8
:1011E000F4CF19F018500E2619500F22000E1022BD
:1011F000000E112207500202F3CF18F0F4CF19F0BD
:101200001850142619501522000E1622000E17220F
:1012100006500302F3CF18F0F4CF19F0185014263B
:1012200019501522000E1622000E17220750030235
:10123000F3CF18F0F4CF19F01850096E19500A6E58
:101240000B6A0C6A0BC00CF00AC00BF009C00AF064
:10125000096A095014260A5015220B5016220C5008
:1012600017220EC009F00FC00AF010C00BF011C019
:101270000CF0190E41EF09F0D8900C320B320A3203
:101280000932E82E3CEF09F0095014260A501522C5
:101290000B5016220C50172210C011F00FC010F086
:1012A0000EC00FF00E6A125013C009F00A6A092628
:1012B000000E0A22820E0924186EFF0E0A20196EF3
:1012C00077EF09F0D890143615361636173611AE6A
:1012D0006CEF09F06EEF09F06FEF09F01480D89011
:1012E0000E360F36103611361806D8A0190616AE6F
:1012F0007CEF09F07EEF09F062EF09F0000E126E4C
:1013000011AE85EF09F087EF09F0ABEF09F0FF0EA2
:101310000E14096EFF0E0F140A6EFF0E10140B6EE2
:101320007F0E11140C6E09500A100B100C10D8B45B
:101330009CEF09F09EEF09F0A2EF09F0010E126E8A
:10134000ABEF09F014A0A7EF09F0A9EF09F0ABEF9C
:1013500009F09EEF09F01250D8B4B1EF09F0B3EFE5
:1013600009F0D7EF09F0010E1426000E15221622FF
:10137000172217A0BEEF09F0C0EF09F0D7EF09F070
:1013800014C009F015C00AF016C00BF017C00CF01D
:101390000C340C320B320A32093209C014F00AC084
:1013A00015F00BC016F00CC017F0184A192A19BE18
:1013B000E2EF09F0195008E11828D8A0E2EF09F08F
:1013C000E4EF09F0EEEF09F0000E146E000E156E5A
:1013D000800E166E7F0E176E1CEF0AF019BEFBEF23
:1013E00009F0195006E11804D8B0F9EF09F0FBEF45
:1013F00009F007EF0AF0000E146E000E156E000ED5
:10140000166E000E176E000E0D6E1CEF0AF018C05F
:1014100013F0FF0E1416FF0E15167F0E1616000E93
:10142000171613A016EF0AF018EF0AF019EF0AF0DA
:10143000168ED8901330176E0D50171214C001F08D
:1014400015C002F016C003F017C004F012001AC055
:1014500001F01BC002F01CC003F01DC004F0900E90
:10146000056E3E0E066E7A0E076E3F0E086E12EC8B
:1014700008F001C02FF002C030F003C031F004C00A
:1014800032F02FC001F030C002F031C003F032C0A2
:1014900004F0AAEC0AF002340232013202340232C1
:1014A000013201500F015E6F2FC001F030C002F019
:1014B00031C003F032C004F0AAEC0AF0030E0116AA
:1014C000013AF00E01160F015D510F0B01105D6F17
:1014D0001EC001F01FC002F020C003F021C004F0C4
:1014E000900E056E3E0E066E7A0E076E3F0E086E6B
:1014F00012EC08F001C02BF002C02CF003C02DF05C
:1015000004C02EF02BC001F02CC002F02DC003F05F
:101510002EC004F0AAEC0AF0023402320132023486
:101520000232013201500F01556F2BC001F02CC067
:1015300002F02DC003F02EC004F0AAEC0AF0030E56
:101540000116013AF00E01160F015D510F0B01104B
:10155000546F1200033404340A6E0A50D8A4B3EF57
:101560000AF0B5EF0AF0BFEF0AF0000E016E000EB0
:10157000026E000E036E000E046E2CEF0BF001C025
:1015800005F002C006F003C007F004C008F0200E0A
:10159000CFEF0AF0D8900832073206320532E82E33
:1015A000CAEF0AF00550096E038EFF0E0116FF0EFA
:1015B0000216FF0E0316000E0416960E0A5E0ABEF1
:1015C000E6EF0AF0E4EF0AF0FCEF0AF00A50800AB6
:1015D000970FD8B0EEEF0AF0F0EF0AF0F2EF0AF052
:1015E000B5EF0AF0D89004320332023201320A3EDB
:1015F000F2EF0AF014EF0BF01F0E0A6402EF0BF08B
:1016000004EF0BF00CEF0BF0B5EF0AF0D8900136B9
:101610000236033604360A060A50D8A412EF0BF03D
:1016200014EF0BF006EF0BF00950D8B41AEF0BF0E3
:101630001CEF0BF024EF0BF0041E031E021E016CC6
:10164000000E02220322042201C001F002C002F0B7
:1016500003C003F004C004F012009EAA32EF0BF0A6
:1016600034EF0BF0A8EF0BF0AECF33F04D0E331884
:10167000D8A43DEF0BF03FEF0BF05CEF0BF0000E4A
:101680001A6EC00E1B6E7F0E1C6E440E1D6E000E79
:101690001E6EC00E1F6E7F0E206E440E216E27EC54
:1016A0000AF0000E016E000E026E010E036E010EB6
:1016B0004CEC0CF0A8EF0BF0410E3318D8A463EFFC
:1016C0000BF065EF0BF082EF0BF0000E1A6EC00E00
:1016D0001B6E7F0E1C6E440E1D6E000E1E6EC00E25
:1016E0001F6E7F0E206E440E216E27EC0AF0010E55
:1016F000016E010E026E000E036E000E4CEC0CF03B
:10170000A8EF0BF0540E3318D8A489EF0BF08BEF31
:101710000BF0A8EF0BF0000E1A6E000E1B6E000E01
:101720001C6E000E1D6E000E1E6E000E1F6E000E53
:10173000206E000E216E27EC0AF0000E016E000EE6
:10174000026E000E036E000E4CEC0CF0A8EF0BF0D6
:101750001200030E2A6E080E296E770EE82EFED7B1
:10176000292EFCD72A2EFAD70000300E276E000E45
:1017700071EC0CF01A0E296EF80EE82EFED7292E09
:10178000FCD700D0300E276E000E71EC0CF01A0E54
:10179000296EF80EE82EFED7292EFCD700D0300E89
:1017A000276E000E71EC0CF0020E276E000E71EC2D
:1017B0000CF0060E276E000E71EC0CF00F0E276E6B
:1017C000000E71EC0CF0280E276E000E71EC0CF080
:1017D000010E276E000E71EC0CF0030E2A6E080E3F
:1017E000296E770EE82EFED7292EFCD72A2EFAD79F
:1017F00000001200720ED36E000E0F013A6F000E41
:101800003B6F000E3C6F9498949A000E956E000EFC
:10181000966E8B988B9A000E8C6E000E8D6EF28EEB
:10182000F28CD08E9D8A9E9A670EAF6E948C948EA9
:10183000AC9CAC8AAC98AC84AB8EAB9CAB88B896B5
:10184000F90EBB6E000EBA6E0C0E5D6FFA0E5E6F77
:101850000C0E546FFA0E556FBA841200266E8B8AE6
:101860004E0E256EEB0EE82EFED7252EFCD700007F
:1018700026C08CFF4E0E256EEB0EE82EFED7252ED1
:10188000FCD700008B9A4E0E256EEB0EE82EFED78D
:10189000252EFCD700001200046E04B002D08C98F4
:1018A00001D08C8801B002D08C9A01D08C8A02B011
:1018B00002D08C9C01D08C8C03B002D08C9E01D0C5
:1018C0008C8E120000EE2BF0090EEE6AE806FDE1A8
:1018D00034903492000EF86E100EF76E00018BEF0C
:1018E0000CF0286E28B002D08B9801D08B88273856
:1018F0000F0B2EEC0CF027502EEC0CF01200F3CF57
:1019000022F0F4CF23F02DEC0BF023C0F4FF22C023
:10191000F3FF34921100FAEC0BF0A9EC0BF08FEF0F
:061920000CF013EF00F0D3
:020000040030CA
:0E000000FF281F3CFFBB81FF0FC00FE00F4029
:00000001FF
