:04000000E1EF08F034
:0F1000000048656C6C6F20576F726C64210000A4
:10101000800E3B6E000E81EC09F0010E3D6E08EC77
:1010200009F0150E416E4B0E406EBE0EE82EFED737
:10103000402EFCD7412EFAD700D0C00E3B6E000EDA
:1010400081EC09F0000E436E000E426E33EF08F0A3
:101050004250010FD96EDA6ADF503B6E010E81EC0F
:1010600009F0424A432A4250010FD96EDA6ADF5032
:10107000D8A43DEF08F03FEF08F028EF08F0940EF9
:101080003B6E000E81EC09F0000E456E000E446EC2
:1010900055EF08F04450600FD96EDA6ADF503B6EAE
:1010A000010E81EC09F0444A452A4450600FD96E84
:1010B000DA6ADF50D8A45FEF08F061EF08F04AEF7A
:1010C00008F0030E416E080E406E770EE82EFED734
:1010D000402EFCD7412EFAD70000D40E3B6E000EF6
:1010E00081EC09F0000E476E000E466E83EF08F0AB
:1010F00046501F0FD96EDA6ADF503B6E010E81EC4D
:1011000009F0464A472A46501F0FD96EDA6ADF5067
:10111000D8A48DEF08F08FEF08F078EF08F01200F8
:10112000020E3E6E380E3D6EAD0EE82EFED73D2E01
:10113000FCD73E2EFAD70000300E3B6E000E81EC3D
:1011400009F01A0E3D6EF80EE82EFED73D2EFCD7A4
:1011500000D0300E3B6E000E81EC09F01A0E3D6E91
:10116000F80EE82EFED73D2EFCD700D0300E3B6E99
:10117000000E81EC09F0020E3B6E000E81EC09F0CE
:10118000060E3B6E000E81EC09F00F0E3B6E000E5A
:1011900081EC09F0280E3B6E000E81EC09F0010E87
:1011A0003B6E000E81EC09F0030E3E6E080E3D6EA4
:1011B000770EE82EFED73D2EFCD73E2EFAD7000044
:1011C0001200E40EF66E120EF76E000EF86E00EED0
:1011D00060F010EE1EF00900F5CFEEFFE550E15093
:1011E000FAE18C0EF66E120EF76E000EF86E00EE3F
:1011F00001F010EE38F00900F5CFEEFFE550E150B8
:10120000FAE1000EF86E100EF76E00018FEF09F094
:10121000000E3F6E18EF09F03D503F243E6E3EC079
:10122000F6FF0800F5CF3BF0010E81EC09F03F2AF4
:101230003D503F243E6E3EC0F6FF0800F5500009C9
:10124000D8A425EF09F027EF09F00CEF09F0120000
:101250003A6E8B8A4E0E396EEB0EE82EFED7392E83
:10126000FCD700003AC08CFF4E0E396EEB0EE82E14
:10127000FED7392EFCD700008B9A4E0E396EEB0E3E
:10128000E82EFED7392EFCD70000120057656C639C
:101290006F6D6520746F2074686973000000000032
:1012A0000000000000000000000045766572796FC4
:1012B0006E6521000000000000000000000000003A
:1012C00000000000720ED36E000E0F013A6F000E88
:1012D0003B6F9498949A000E956E8B988B9A000EA3
:1012E0008C6E12004D6963726F636F6E74726F6CF7
:1012F0006C6572210000000000000000000000008A
:1013000000003C6E3CB002D08B9801D08B883B38FB
:101310000F0B28EC09F03B5028EC09F0120062ECAE
:1013200009F090EC08F008EC08F095EF09F000EFF8
:0213300000F0CB
:020000040030CA
:0E000000FF281F3CFFBF81FF0FC00FE00F4025
:00000001FF
