:0400000066EF00F0B7
:060008005682FAEF17F02A
:100018005680D8CF61F0E8CF62F0E0CF63F0F2A06D
:1000280018EF00F01AEF00F03DEF00F0F29081CFEA
:1000380060F0F00E00016017D8B425EF00F027EF4C
:1000480000F02EEF00F0000E0101376F000E366F42
:100058003DEF00F08150F00BF00AD8B436EF00F015
:1000680038EF00F03DEF00F0000E0101376F010E90
:10007800366FA1A242EF00F044EF00F05EEF00F00F
:100088003C0EB36EAF0EB26E0101344B352B89B204
:1000980050EF00F053EF00F0010E54EF00F0000EA7
:1000A800FF0A0001606F604789506019FD0B6019F5
:1000B800896EA19263C0E0FF62C0E8FF61C0D8FF0B
:0800C800569010006DEF25F0C9
:1006000000252E326625252025642052504D006994
:100610006E66006E616E0000000E0001E26FBAC0EF
:10062000E3F0BBC0E4F0BCC0E5F0BDC0E6F0E6BF5F
:100630001EEF03F01CEF03F032EF03F0010EE26F48
:10064000E3C064F0E4C065F0E5C066F0E6C067F0C2
:10065000B7EC26F064C0E3F065C0E4F066C0E5F0F6
:1006600067C0E6F0000E0001E86F000EE76F19C0EA
:10067000D2F01AC0D3F0E251D8B441EF03F043EF07
:1006800003F057EF03F0E251D8A449EF03F04BEF2A
:1006900003F051EF03F0000EC86F2B0EC76F55EF3C
:1006A00003F0000EC86F2D0EC76FC7C0E2F0E3C0A5
:1006B00064F0E4C065F0E5C066F0E6C067F0E7EC22
:1006C00020F0000164056511D8A469EF03F06BEF19
:1006D00003F09DEF03F0E251D8B471EF03F073EF34
:1006E00003F07CEF03F0E2C046F1D207D8A0D307B5
:1006F000000EE86F010EE76F460EE725646F010EEE
:10070000E821656F0F0E666F060E676F58EC26F0D6
:100710000001FD0ED227FF0ED323B8C074F0B9C07C
:1007200075F0460E766F010E776FD2C078F0D3C0A9
:1007300079F0FAEC24F00BEF08F0E3C064F0E4C0C9
:1007400065F0E5C066F0E6C067F0E7EC20F0000178
:1007500064516511D8A4AFEF03F0B1EF03F0D0EF0F
:1007600003F0E251D8B4B7EF03F0B9EF03F0C2EFF2
:1007700003F0E2C046F1D207D8A0D307000EE86F1D
:10078000010EE76F460EE725646F010EE821656FE5
:10079000130E666F060E676F58EC26F088EF03F0B5
:1007A000000EE96F000EEA6F800EEB6F3F0EEC6FEC
:1007B000000ED16F000ED06FE3C064F0E4C065F0AE
:1007C000E5C066F0E6C067F0000E686F000E696F66
:1007D000000E6A6F000E6B6F09EC24F00001D8B0B8
:1007E000F4EF03F0F6EF03F0D8EF04F002EF04F0BB
:1007F000D4C0E9F0D5C0EAF0D6C0EBF0D7C0ECF039
:10080000D04BD12BE9C072F0EAC073F0EBC074F0AA
:10081000ECC075F0000E766F000E776F200E786FCB
:10082000410E796F4CEC0DF072C0D4F073C0D5F06E
:1008300074C0D6F075C0D7F00001D451E35D646F89
:10084000D551E459656FD651E559666FD751E659D0
:10085000676F39EC25F0000167BF3AEF04F067518C
:100860006611651109E1020E645DD8A03AEF04F04B
:100870003CEF04F0F8EF03F0D4C08BF0D5C08CF05F
:10088000D6C08DF0D7C08EF0E3C08FF0E4C090F0FA
:10089000E5C091F0E6C092F0E3EC1FF00001D8A0B3
:1008A00054EF04F056EF04F0F8EF03F0E951E35D84
:1008B000646FEA51E459656FEB51E559666FEC518D
:1008C000E659676F39EC25F0000167BF75EF04F05A
:1008D00067516611651107E1020E645DD8B073EFD0
:1008E00004F075EF04F0BEEF04F0E9C0E3F0EAC0F5
:1008F000E4F0EBC0E5F0ECC0E6F0D8EF04F0E9C0BE
:100900008BF0EAC08CF0EBC08DF0ECC08EF0000EE6
:100910008F6F000E906F200E916F410E926F77ECEB
:1009200011F08BC0E9F08CC0EAF08DC0EBF08EC006
:10093000ECF00001D007D8A0D107E951E35D646F66
:10094000EA51E459656FEB51E559666FEC51E65990
:10095000676F39EC25F0000167BFBCEF04F0675109
:100960006611651107E1020E645DD8B0BAEF04F0BC
:10097000BCEF04F0BEEF04F075EF04F0E3C08BF0C1
:10098000E4C08CF0E5C08DF0E6C08EF0E9C08FF0D9
:10099000EAC090F0EBC091F0ECC092F0E3EC1FF0F5
:1009A0000001D8A0D6EF04F0D8EF04F07FEF04F0F8
:1009B000BEC0CAF0CAC0CBF01CBEE1EF04F0E3EF4A
:1009C00004F0E9EF04F01BC0C3F01CC0C4F0EDEF6D
:1009D00004F0000EC46F060EC36FC3C0CEF0C4C0D7
:1009E000CFF0CE4BCF2B660ECB19D8A4FAEF04F084
:1009F000FCEF04F01CEF05F0D1BF03EF05F001EFB1
:100A000005F00FEF05F0000EE96F000EEA6F800EA3
:100A1000EB6F3F0EEC6F000ED16F000ED06F670EC4
:100A2000CA19D8B416EF05F018EF05F01CEF05F061
:100A3000D051CE27D151CF23000ED96F000ED86FE1
:100A4000E3C0DAF0E4C0DBF0E5C0DCF0E6C0DDF0E6
:100A5000E9C0D4F0EAC0D5F0EBC0D6F0ECC0D7F0D6
:100A6000AEEF05F0DAC08BF0DBC08CF0DCC08DF0AF
:100A7000DDC08EF0E9C08FF0EAC090F0EBC091F0DD
:100A8000ECC092F077EC11F08BC0A4F08CC0A5F014
:100A90008DC0A6F08EC0A7F041EC19F0A4C0DEF026
:100AA000A5C0DFF0A6C0E0F0A7C0E1F0DEC064F0B2
:100AB000DFC065F0E0C066F0E1C067F05FEC1FF0FA
:100AC00064C0CCF065C0CDF0DAC08BF0DBC08CF038
:100AD000DCC08DF0DDC08EF0DEC076F0DFC077F0D8
:100AE000E0C078F0E1C079F0E9C072F0EAC073F0DC
:100AF000EBC074F0ECC075F04CEC0DF072C08FF0F0
:100B000073C090F074C091F075C092F010EC26F0B4
:100B10008BC0DAF08CC0DBF08DC0DCF08EC0DDF075
:100B2000E9C08BF0EAC08CF0EBC08DF0ECC08EF029
:100B3000000E00018F6F000E906F200E916F410E1E
:100B4000926F77EC11F08BC0E9F08CC0EAF08DC0A9
:100B5000EBF08EC0ECF00001D84BD92BCE51D85D14
:100B6000D951800ABF6FCF51800ABF59D8A0BBEFBF
:100B700005F0BDEF05F032EF05F0E9C072F0EAC014
:100B800073F0EBC074F0ECC075F0000E766F000EE1
:100B9000776FA00E786F400E796F4CEC0DF072C03D
:100BA000DEF073C0DFF074C0E0F075C0E1F0DAC0D1
:100BB0008BF0DBC08CF0DCC08DF0DDC08EF0DEC0D1
:100BC0008FF0DFC090F0E0C091F0E1C092F0E3EC74
:100BD0001FF00001D8B0EFEF05F0F1EF05F0FBEFEB
:100BE00005F0000EDE6F000EDF6F000EE06F000EEE
:100BF000E16F24EF06F0DAC064F0DBC065F0DCC022
:100C000066F0DDC067F0DEC068F0DFC069F0E0C00C
:100C10006AF0E1C06BF009EC24F00001D8A013EFFA
:100C200006F015EF06F024EF06F0CCB11AEF06F04F
:100C30001CEF06F024EF06F0000EDE6F000EDF6FF3
:100C4000000EE06F000EE16FE3C064F0E4C065F0F9
:100C5000E5C066F0E6C067F0DEC068F0DFC069F0AE
:100C6000E0C06AF0E1C06BF0EBEC0AF064C0DAF0CF
:100C700065C0DBF066C0DCF067C0DDF0DAC08BF089
:100C8000DBC08CF0DCC08DF0DDC08EF0000E00010A
:100C9000766F000E776F200E786F410E796FD4C09B
:100CA00072F0D5C073F0D6C074F0D7C075F04CECBC
:100CB0000DF072C08FF073C090F074C091F075C0E9
:100CC00092F0E3EC1FF00001D8A069EF06F06BEFA3
:100CD00006F093EF06F0D04BD12BD4C072F0D5C004
:100CE00073F0D6C074F0D7C075F0000E766F000EAA
:100CF000776F200E786F410E796F4CEC0DF072C05B
:100D0000D4F073C0D5F074C0D6F075C0D7F0660EBD
:100D10000001CB19D8A48FEF06F091EF06F093EF06
:100D200006F0CE4BCF2BD4C0E9F0D5C0EAF0D6C048
:100D3000EBF0D7C0ECF0D0C0C1F0D1C0C2F0000ED3
:100D4000C96F000EC66F000EC56F000ED96F000E82
:100D5000D86F91EF07F0DAC08BF0DBC08CF0DCC00D
:100D60008DF0DDC08EF0E9C08FF0EAC090F0EBC0EE
:100D700091F0ECC092F077EC11F08BC0A4F08CC035
:100D8000A5F08DC0A6F08EC0A7F041EC19F0A4C06C
:100D9000DEF0A5C0DFF0A6C0E0F0A7C0E1F0DEC045
:100DA00064F0DFC065F0E0C066F0E1C067F05FECC2
:100DB0001FF0000165BFE8EF06F0655107E10A0E7C
:100DC000645DD8B0E6EF06F0E8EF06F0F8EF06F065
:100DD000DEC064F0DFC065F0E0C066F0E1C067F03F
:100DE0005FEC1FF064C0CCF065C0CDF0FCEF06F006
:100DF000000ECD6F090ECC6F0001C951D8A403EFCE
:100E000007F005EF07F02DEF07F0C2BF0CEF07F07A
:100E10000AEF07F02DEF07F0460EE725D96E010E19
:100E2000E821DA6E2E0EDF6EE74BE82BD207D8A052
:100E3000D307010EC96F2DEF07F0460EE725D96ED7
:100E4000010EE821DA6E300EDF6EE74BE82BD20799
:100E5000D8A0D307C507D8A0C607C551C611D8A4C6
:100E600034EF07F036EF07F01DEF07F0460EE725E9
:100E7000D96E010EE821DA6ECC51300FDF6EE74BF0
:100E8000E82BD207D8A0D307DAC08BF0DBC08CF0F8
:100E9000DCC08DF0DDC08EF0DEC076F0DFC077F014
:100EA000E0C078F0E1C079F0E9C072F0EAC073F018
:100EB000EBC074F0ECC075F04CEC0DF072C08FF02C
:100EC00073C090F074C091F075C092F010EC26F0F1
:100ED0008BC0DAF08CC0DBF08DC0DCF08EC0DDF0B2
:100EE000E9C08BF0EAC08CF0EBC08DF0ECC08EF066
:100EF000000E00018F6F000E906F200E916F410E5B
:100F0000926F77EC11F08BC0E9F08CC0EAF08DC0E5
:100F1000EBF08EC0ECF00001C107D8A0C207D84B9F
:100F2000D92BCE51D85DD951800ABF6FCF51800ADD
:100F3000BF59D8B09EEF07F0A0EF07F0AEEF07F073
:100F4000E8BFACEF07F0E85109E14B0EE75DD8A030
:100F5000ACEF07F0AEEF07F0ABEF06F0000ED96F85
:100F60004F0ED86F460ED825D96E010ED921DA6EF4
:100F7000DF6A460EBF6F010EC06FE751BF5FE851D9
:100F8000C05BD851BF25646FD951C021656F460E33
:100F9000666F010E676FE7C068F0E8C069F0BFECEC
:100FA00025F00001E751D85DE76FE851D959E86FA6
:100FB000E251D8A4DEEF07F0E1EF07F0010EE2EF17
:100FC00007F0000ED86FD96BE251D8B4EAEF07F002
:100FD000ECEF07F0F7EF07F0E707D8A0E807460EB9
:100FE000E725D96E010EE821DA6EE2C0DFFFD851A5
:100FF000D25FD951D35BB8C074F0B9C075F0460E5A
:10100000E725766F010EE821776FD2C078F0D3C064
:1010100079F0FAEC24F01200000E0101416F000E8D
:10102000406F41BF1DEF08F0415109E1040E405DE2
:10103000D8A01DEF08F01FEF08F023EF08F0EAEF4B
:101040000AF0B3EC24F030C18BF031C18CF032C126
:101050008DF033C18EF0000E00018F6F000E906F87
:10106000900E916F400E926FE3EC1FF00001D8B02C
:101070003CEF08F03EEF08F021EF08F0000E010110
:10108000356F000E346F3C0ECF6EAF0ECE6EB1805A
:1010900059EF08F036513711D8A451EF08F053EF4B
:1010A00008F057EF08F0F9EC26F059EF08F019ECCA
:1010B00027F0010135BF66EF08F0355109E1190E3F
:1010C000345DD8A066EF08F068EF08F04AEF08F04A
:1010D000000E356F000E346F3C0ECF6EAF0ECE6E2D
:1010E00081EF08F036513711D8A479EF08F07BEF83
:1010F00008F07FEF08F05CEC27F081EF08F019ECC6
:1011000027F0010135BF8EEF08F0355109E1150ECA
:10111000345DD8A08EEF08F090EF08F072EF08F081
:10112000000E356F000E346F3C0ECF6EAF0ECE6EDC
:10113000A9EF08F036513711D8A4A1EF08F0A3EFBA
:1011400008F0A7EF08F055EC27F0A9EF08F019EC2C
:1011500027F0010135BFB6EF08F0355109E1090E5E
:10116000345DD8A0B6EF08F0B8EF08F09AEF08F0B9
:10117000000E356F000E346F3C0ECF6EAF0ECE6E8C
:10118000D1EF08F036513711D8A4C9EF08F0CBEFF2
:1011900008F0CFEF08F05CEC27F0D1EF08F019EC85
:1011A00027F0010135BFDEEF08F0355109E1150EDA
:1011B000345DD8A0DEEF08F0E0EF08F0C2EF08F0F1
:1011C000000E356F000E346F3C0ECF6EAF0ECE6E3C
:1011D000F9EF08F036513711D8A4F1EF08F0F3EF2A
:1011E00008F0F7EF08F0F9EC26F0F9EF08F019EC49
:1011F00027F0010135BF06EF09F0355109E1170E5F
:10120000345DD8A006EF09F008EF09F0EAEF08F026
:10121000000E356F000E346F3C0ECF6EAF0ECE6EEB
:1012200021EF09F036513711D8A419EF09F01BEF5F
:1012300009F01FEF09F05CEC27F021EF09F019EC41
:1012400027F0010135BF2EEF09F0355109E11E0EDF
:10125000345DD8A02EEF09F030EF09F012EF09F05D
:10126000B3EC24F030C18BF031C18CF032C18DF081
:1012700033C18EF0000E00018F6F000E906F900E44
:10128000916F400E926FE3EC1FF00001D8A04BEF7E
:1012900009F04DEF09F030EF09F0000E0101356F54
:1012A000000E346F3C0ECF6EAF0ECE6E67EF09F0BE
:1012B00036513711D8A45FEF09F061EF09F065EFFF
:1012C00009F055EC27F067EF09F019EC27F0010160
:1012D00035BF74EF09F0355109E1090E345DD8A02E
:1012E00074EF09F076EF09F058EF09F0000E356F52
:1012F000000E346F3C0ECF6EAF0ECE6E8FEF09F046
:1013000036513711D8A487EF09F089EF09F08DEF36
:1013100009F05CEC27F08FEF09F019EC27F00101E0
:1013200035BF9CEF09F0355109E1150E345DD8A0A9
:101330009CEF09F09EEF09F080EF09F0000E356F89
:10134000000E346F3C0ECF6EAF0ECE6EB7EF09F0CD
:1013500036513711D8A4AFEF09F0B1EF09F0B5EF6E
:1013600009F0F9EC26F0B7EF09F019EC27F00101CC
:1013700035BFC4EF09F0355109E1140E345DD8A032
:10138000C4EF09F0C6EF09F0A8EF09F0000E356FC1
:10139000000E346F3C0ECF6EAF0ECE6EDFEF09F055
:1013A00036513711D8A4D7EF09F0D9EF09F0DDEFA6
:1013B00009F05CEC27F0DFEF09F019EC27F00101F0
:1013C00035BFECEF09F0355109E1150E345DD8A0B9
:1013D000ECEF09F0EEEF09F0D0EF09F0000E356FF9
:1013E000000E346F3C0ECF6EAF0ECE6E07EF0AF0DC
:1013F00036513711D8A4FFEF09F001EF0AF005EFDD
:101400000AF055EC27F007EF0AF019EC27F001017C
:1014100035BF14EF0AF0355109E1090E345DD8A04B
:1014200014EF0AF016EF0AF0F8EF09F0000E356F2E
:10143000000E346F3C0ECF6EAF0ECE6E2FEF0AF063
:1014400036513711D8A427EF0AF029EF0AF02DEF13
:101450000AF05CEC27F02FEF0AF019EC27F00101FD
:1014600035BF3CEF0AF0355109E1150E345DD8A0C7
:101470003CEF0AF03EEF0AF020EF0AF0000E356F65
:10148000000E346F3C0ECF6EAF0ECE6E57EF0AF0EB
:1014900036513711D8A44FEF0AF051EF0AF055EF4B
:1014A0000AF0F9EC26F057EF0AF019EC27F00101E9
:1014B00035BF64EF0AF0355109E1130E345DD8A051
:1014C00064EF0AF066EF0AF048EF0AF0000E356F9D
:1014D000000E346F3C0ECF6EAF0ECE6E7FEF0AF073
:1014E00036513711D8A477EF0AF079EF0AF07DEF83
:1014F0000AF05CEC27F07FEF0AF019EC27F001010D
:1015000035BF8CEF0AF0355109E1150E345DD8A0D6
:101510008CEF0AF08EEF0AF070EF0AF0000E356FD4
:10152000000E346F3C0ECF6EAF0ECE6EA7EF0AF0FA
:1015300036513711D8A49FEF0AF0A1EF0AF0A5EFBA
:101540000AF055EC27F0A7EF0AF019EC27F001019B
:1015500035BFB4EF0AF0355109E1090E345DD8A06A
:10156000B4EF0AF0B6EF0AF098EF0AF0000E356F0C
:10157000000E346F3C0ECF6EAF0ECE6ECFEF0AF082
:1015800036513711D8A4C7EF0AF0C9EF0AF0CDEFF2
:101590000AF05CEC27F0CFEF0AF019EC27F001011C
:1015A00035BFDCEF0AF0355109E1330E345DD8A0C8
:1015B000DCEF0AF0DEEF0AF0C0EF0AF0000E356F44
:1015C000000E346F3C0ECF6EAF0ECE6E404B412BF3
:1015D00011EF08F0120000016751800B706F675126
:1015E0006725726F66AFF7EF0AF0F9EF0AF0FAEFCE
:1015F0000AF072817251D8B400EF0BF002EF0BF0D9
:1016000017EF0BF07229D8A408EF0BF00AEF0BF0DC
:1016100012EF0BF0000E646F000E656F000E666F28
:10162000000E676F668F000E676F1FEF0BF0000EE6
:10163000646F000E656F000E666F000E676F6B5172
:10164000800B716F70517119D8B429EF0BF02BEF2B
:101650000BF02CEF0BF0708D6B516B25716F6AAF37
:1016600034EF0BF036EF0BF037EF0BF07181715167
:10167000D8B43DEF0BF03FEF0BF054EF0BF07129B6
:10168000D8A445EF0BF047EF0BF04FEF0BF0000E37
:10169000686F000E696F000E6A6F000E6B6F6A8FC5
:1016A000000E6B6F5CEF0BF0000E686F000E696F41
:1016B000000E6A6F000E6B6F7251715DD8B063EFF0
:1016C0000BF065EF0BF08CEF0BF070AD6AEF0BF0E9
:1016D0006CEF0BF06EEF0BF0800E701B72C073F0AE
:1016E00071C072F073C071F064C073F068C064F0D0
:1016F00073C068F065C073F069C065F073C069F0CD
:1017000066C073F06AC066F073C06AF067C073F0B9
:101710006BC067F073C06BF0000E736F725171C0D5
:101720006CF06D6B6C5F000E6D5B6DBFA1EF0BF02D
:101730006D5109E11A0E6C5DD8A0A1EF0BF0A3EF7B
:101740000BF0DAEF0BF06451651166116711D8A444
:10175000ACEF0BF0AFEF0BF0010EB0EF0BF0000EA3
:10176000736F000E646F000E656F000E666F000EE3
:10177000676F71C072F0E3EF0BF073A1C2EF0BF073
:10178000C4EF0BF0CAEF0BF0D89073310109736FFF
:10179000CCEF0BF0D890733364A1D1EF0BF0D3EF03
:1017A0000BF0D4EF0BF0738F673567336633653317
:1017B0006433722B7151725DD8A0E1EF0BF0E3EF4F
:1017C0000BF0BDEF0BF070BDE8EF0BF0EAEF0BF0A4
:1017D0002AEF0CF07251D8A4F0EF0BF0F2EF0BF0FF
:1017E000FCEF0BF0000E646F000E656F000E666F6D
:1017F000000E676F4BEF0DF0685164276951652348
:101800006A5166236B51672367A109EF0CF00BEF58
:101810000CF0B7EF0CF073A110EF0CF012EF0CF01E
:1018200018EF0CF0D89073310109736F1AEF0CF0B8
:10183000D890733364A11FEF0CF021EF0CF022EF6E
:101840000CF0738F67356733663365336433722BFF
:10185000B7EF0CF06851645D695165596A5166597A
:101860006751800A6C6F6B51800A6C59D8B03BEF9E
:101870000CF03DEF0CF068EF0CF06451685D6C6F9C
:10188000655169596D6F66516A596E6F67516B5931
:101890006F6FFF0E6C25646FFF0E6D21656FFF0E7D
:1018A0006E21666FFF0E6F21676F800E701B736D68
:1018B0007351D8A45EEF0CF060EF0CF070EF0CF0F9
:1018C000010E6427000E65236623672370EF0CF07A
:1018D0006851645F6951655B6A51665B6B51675B18
:1018E0006451651166116711D8A479EF0CF07BEF94
:1018F0000CF0B0EF0CF07351D8A481EF0CF083EF33
:101900000CF0B0EF0CF0000E646F000E656F000E6F
:10191000666F000E676F4BEF0DF0D8906437653738
:101920006637673773AF97EF0CF099EF0CF09AEFCB
:101930000CF0648173A19FEF0CF0A1EF0CF0A5EF08
:101940000CF0D8807337A7EF0CF0D8907337725132
:10195000D8B4ADEF0CF0AFEF0CF0B0EF0CF07207B5
:1019600066AFB5EF0CF0B7EF0CF08DEF0CF0000E9A
:10197000716F73AFBEEF0CF0C0EF0CF0D8EF0CF04E
:1019800073C06CF07F0E6C17D8B4C9EF0CF0CBEFBE
:101990000CF0CFEF0CF0010E716FD8EF0CF064A1DA
:1019A000D4EF0CF0D6EF0CF0D8EF0CF0CBEF0CF03E
:1019B0007151D8B4DEEF0CF0E0EF0CF00BEF0DF04E
:1019C000010E6427000E65236623672367A1EBEFF2
:1019D0000CF0EDEF0CF00BEF0DF064C06CF065C097
:1019E0006DF066C06EF067C06FF06F356F336E33A9
:1019F0006D336C336CC064F06DC065F06EC066F022
:101A00006FC067F07229D8B408EF0DF00AEF0DF03F
:101A10000BEF0DF0722B7229D8B411EF0DF013EF0C
:101A20000DF01BEF0DF07251D8A419EF0DF01BEF64
:101A30000DF02DEF0DF0000E646F000E656F000EBF
:101A4000666F000E676F7251D8A429EF0DF02BEF6F
:101A50000DF02DEF0DF0000E706F72A132EF0DF052
:101A600034EF0DF037EF0DF0668F38EF0DF0669F15
:101A7000D8907231676F70AF40EF0DF042EF0DF00C
:101A800043EF0DF0678F64C064F065C065F066C019
:101A900066F067C067F0120000017551800B7E6F21
:101AA00075517525846F74AF58EF0DF05AEF0DF036
:101AB0005BEF0DF084818451D8B461EF0DF063EFDA
:101AC0000DF076EF0DF08429D8A469EF0DF06BEFDF
:101AD0000DF073EF0DF0000E726F000E736F000EBD
:101AE000746F000E756F748F7EEF0DF0000E726FC5
:101AF000000E736F000E746F000E756F7951800BBE
:101B00007E1B795179257F6F78AF89EF0DF08BEFD0
:101B10000DF08CEF0DF07F817F51D8B492EF0DF076
:101B200094EF0DF0A7EF0DF07F29D8A49AEF0DF0F8
:101B30009CEF0DF0A4EF0DF0000E766F000E776FA6
:101B4000000E786F000E796F788FAFEF0DF0000EFA
:101B5000766F000E776F000E786F000E796F7F51F1
:101B6000D8B4B5EF0DF0B7EF0DF0BFEF0DF0845125
:101B7000D8A4BDEF0DF0BFEF0DF0C9EF0DF0000ED2
:101B8000726F000E736F000E746F000E756F61EF51
:101B90000FF078517203F3CF89F0F4CF8AF08951B6
:101BA000806F816B826B836B8A51856F866B876BCD
:101BB000886B77517303F3CF89F0F4CF8AF08951A2
:101BC0008027000E8123822383238A518527000EDC
:101BD00086238723882376517403F3CF89F0F4CFCB
:101BE0008AF089518027000E8123822383238A5122
:101BF0008527000E86238723882382C083F081C037
:101C000082F080C081F0806B76517303F3CF89F04E
:101C1000F4CF8AF0895180278A518123000E8223D4
:101C2000000E832377517203F3CF89F0F4CF8AF04B
:101C3000895180278A518123000E8223000E83233D
:101C400082C083F081C082F080C081F0806B7651C9
:101C50007203F3CF89F0F4CF8AF0895180278A513B
:101C60008123000E8223000E832378517303F3CF68
:101C700089F0F4CF8AF0895185278A518623000E96
:101C80008723000E882377517403F3CF89F0F4CFB4
:101C90008AF0895185278A518623000E8723000EFA
:101CA000882378517403F3CF89F0F4CF8AF08951F7
:101CB0007A6F8A517B6F7C6B7D6B7CC07DF07BC0C3
:101CC0007CF07AC07BF07A6B7A5185277B51862332
:101CD0007C5187237D51882380C07AF081C07BF0BE
:101CE00082C07CF083C07DF0190E7CEF0EF0D8909E
:101CF0007D337C337B337A33E82E77EF0EF07A51E5
:101D000085277B5186237C5187237D51882382C080
:101D100083F081C082F080C081F0806B7F5184C0ED
:101D20007AF07B6B7A27000E7B23820E7A25896FEF
:101D3000FF0E7B218A6FB2EF0EF0D8908537863781
:101D40008737883783AFA7EF0EF0A9EF0EF0AAEF21
:101D50000EF08581D89080378137823783378907A5
:101D6000D8A08A0787AFB7EF0EF0B9EF0EF09DEF5E
:101D70000EF0000E7F6F83AFC0EF0EF0C2EF0EF0DB
:101D8000E6EF0EF0FF0E80157A6FFF0E81157B6F68
:101D9000FF0E82157C6F7F0E83157D6F7A517B114C
:101DA0007C117D11D8B4D7EF0EF0D9EF0EF0DDEF36
:101DB0000EF0010E7F6FE6EF0EF085A1E2EF0EF060
:101DC000E4EF0EF0E6EF0EF0D9EF0EF07F51D8B44D
:101DD000ECEF0EF0EEEF0EF012EF0FF0010E852794
:101DE000000E86238723882388A1F9EF0EF0FBEFEE
:101DF0000EF012EF0FF085C07AF086C07BF087C03E
:101E00007CF088C07DF07D357D337C337B337A3345
:101E10007AC085F07BC086F07CC087F07DC088F0FA
:101E2000894B8A2B8ABF1DEF0FF08A5108E189295F
:101E3000D8A01DEF0FF01FEF0FF029EF0FF0000EED
:101E4000856F000E866F800E876F7F0E886F57EF4D
:101E50000FF08ABF36EF0FF08A5106E18905D8B03E
:101E600034EF0FF036EF0FF042EF0FF0000E856FFA
:101E7000000E866F000E876F000E886F000E7E6F5B
:101E800057EF0FF089C084F0FF0E8517FF0E8617FD
:101E90007F0E8717000E881784A151EF0FF053EFC4
:101EA0000FF054EF0FF0878FD8908431886F7E51F8
:101EB000881385C072F086C073F087C074F088C044
:101EC00075F012003D50800B466E3D503D244C6E27
:101ED0003CAE6DEF0FF06FEF0FF070EF0FF04C8036
:101EE0004C50D8B476EF0FF078EF0FF08BEF0FF087
:101EF0004C28D8A47EEF0FF080EF0FF088EF0FF0A2
:101F0000000E3A6E000E3B6E000E3C6E000E3D6EF3
:101F10003C8E93EF0FF0000E3A6E000E3B6E000EFB
:101F20003C6E000E3D6E4150800B461A41504124DC
:101F30004B6E40AE9EEF0FF0A0EF0FF0A1EF0FF051
:101F40004B804B50D8B4A7EF0FF0A9EF0FF0BCEFC8
:101F50000FF04B28D8A4AFEF0FF0B1EF0FF0B9EFAF
:101F60000FF0000E3E6E000E3F6E000E406E000E33
:101F7000416E408EC4EF0FF0000E3E6E000E3F6EBD
:101F8000000E406E000E416E4B50D8B4CAEF0FF0F9
:101F9000CCEF0FF0D4EF0FF04C50D8A4D2EF0FF0ED
:101FA000D4EF0FF0DEEF0FF0000E3A6E000E3B6E36
:101FB000000E3C6E000E3D6E76EF11F040503A027E
:101FC000F3CF51F0F4CF52F05150476E486A496A4E
:101FD0004A6A52504D6E4E6A4F6A506A3F503B02F9
:101FE000F3CF51F0F4CF52F051504726000E482263
:101FF00049224A2252504D26000E4E224F22502294
:102000003E503C02F3CF51F0F4CF52F051504726EE
:10201000000E482249224A2252504D26000E4E22DE
:102020004F22502249C04AF048C049F047C048F00A
:10203000476A3E503B02F3CF51F0F4CF52F051507B
:10204000472652504822000E4922000E4A223F5095
:102050003A02F3CF51F0F4CF52F05150472652508C
:102060004822000E4922000E4A2249C04AF048C0C8
:1020700049F047C048F0476A3E503A02F3CF51F06A
:10208000F4CF52F05150472652504822000E4922B8
:10209000000E4A2240503B02F3CF51F0F4CF52F0F1
:1020A00051504D2652504E22000E4F22000E50220B
:1020B0003F503C02F3CF51F0F4CF52F051504D2637
:1020C00052504E22000E4F22000E502240503C0231
:1020D000F3CF51F0F4CF52F05150426E5250436E54
:1020E000446A456A44C045F043C044F042C043F0EE
:1020F000426A42504D2643504E2244504F22455092
:10210000502247C042F048C043F049C044F04AC0A2
:1021100045F0190E91EF10F0D89045324432433219
:102120004232E82E8CEF10F042504D2643504E22A2
:1021300044504F224550502249C04AF048C049F00F
:1021400047C048F0476A4B504CC042F0436A4226B1
:10215000000E4322820E4224516EFF0E4320526E27
:10216000C7EF10F0D8904D364E364F3650364AAE47
:10217000BCEF10F0BEEF10F0BFEF10F04D80D89024
:102180004736483649364A365106D8A052064FAE31
:10219000CCEF10F0CEEF10F0B2EF10F0000E4B6E5F
:1021A0004AAED5EF10F0D7EF10F0FBEF10F0FF0EB6
:1021B0004714426EFF0E4814436EFF0E4914446EDE
:1021C0007F0E4A14456E4250431044104510D8B457
:1021D000ECEF10F0EEEF10F0F2EF10F0010E4B6E9E
:1021E000FBEF10F04DA0F7EF10F0F9EF10F0FBEF60
:1021F00010F0EEEF10F04B50D8B401EF11F003EFF8
:1022000011F027EF11F0010E4D26000E4E224F2245
:10221000502250A00EEF11F010EF11F027EF11F047
:102220004DC042F04EC043F04FC044F050C045F0A6
:102230004534453244324332423242C04DF043C00D
:102240004EF044C04FF045C050F0514A522A52BEA1
:1022500032EF11F0525008E15128D8A032EF11F0BE
:1022600034EF11F03EEF11F0000E4D6E000E4E6E89
:10227000800E4F6E7F0E506E6CEF11F052BE4BEF22
:1022800011F0525006E15104D8B049EF11F04BEF74
:1022900011F057EF11F0000E4D6E000E4E6E000E55
:1022A0004F6E000E506E000E466E6CEF11F051C076
:1022B0004CF0FF0E4D16FF0E4E167F0E4F16000E01
:1022C00050164CA066EF11F068EF11F069EF11F0B5
:1022D0004F8ED8904C30506E465050124DC03AF050
:1022E0004EC03BF04FC03CF050C03DF0120000012A
:1022F0008E51800B9B6F8E518E25A26F8DAF83EF19
:1023000011F085EF11F086EF11F0A281A251D8B43F
:102310008CEF11F08EEF11F0A3EF11F0A229D8A4E9
:1023200094EF11F096EF11F09EEF11F0000E8B6F0D
:10233000000E8C6F000E8D6F000E8E6F8D8F000E55
:102340008E6FABEF11F0000E8B6F000E8C6F000ED6
:102350008D6F000E8E6F9251800B9B1B92519225B8
:10236000A36F91AFB6EF11F0B8EF11F0B9EF11F024
:10237000A381A351D8B4BFEF11F0C1EF11F0D6EF94
:1023800011F0A329D8A4C7EF11F0C9EF11F0D1EFD4
:1023900011F0000E8F6F000E906F000E916F000E07
:1023A000926F918F000E926FDEEF11F0000E8F6F23
:1023B000000E906F000E916F000E926F8F51901172
:1023C00091119211D8A4E7EF11F0E9EF11F001EFAC
:1023D00012F0000E8B6F000E8C6F000E8D6F000ED2
:1023E0008E6F800E8D137F0E8E139B518E138BC0BC
:1023F0008BF08CC08CF08DC08DF08EC08EF044EFD1
:1024000013F0A251D8A407EF12F009EF12F013EF66
:1024100012F0000E8B6F000E8C6F000E8D6F000E91
:102420008E6F44EF13F0A351A2C093F0946B935FAF
:10243000000E945B7F0E93259C6F000E94219D6F80
:102440008BC097F08CC098F08DC099F08EC09AF038
:10245000000E8B6F000E8C6F000E8D6F000E8E6F56
:10246000000E9E6F000E9F6F000EA06F000EA16FFA
:10247000000EA36F74EF12F0A351D8B442EF12F024
:1024800044EF12F05BEF12F0D890973798379937F6
:102490009A37D8908B378C378D378E37A1AF53EF63
:1024A00012F055EF12F056EF12F08B81D8909E3754
:1024B0009F37A037A1378F51975D9051985991510F
:1024C000995992519A59D8A068EF12F06AEF12F018
:1024D00073EF12F0A18D8F51975F9051985B9151DE
:1024E000995B92519A5BA32B190EA3657AEF12F0B8
:1024F0007CEF12F03CEF12F09751981199119A115C
:10250000D8B485EF12F087EF12F09FEF12F09E81A2
:102510009FEF12F0D8908B378C378D378E37A1AF65
:1025200094EF12F096EF12F097EF12F08B81D890A3
:102530009E379F37A037A1379C07D8A09D078DAF46
:10254000A4EF12F0A6EF12F08AEF12F0000EA36FC4
:10255000A1AFADEF12F0AFEF12F0D3EF12F0FF0E1C
:102560009E15936FFF0E9F15946FFF0EA015956F2C
:102570007F0EA115966F9351941195119611D8B4B1
:10258000C4EF12F0C6EF12F0CAEF12F0010EA36F03
:10259000D3EF12F08BA1CFEF12F0D1EF12F0D3EF07
:1025A00012F0C6EF12F0A351D8B4D9EF12F0DBEF5E
:1025B00012F0FFEF12F0010E8B27000E8C238D23FB
:1025C0008E238EA1E6EF12F0E8EF12F0FFEF12F08B
:1025D0008BC093F08CC094F08DC095F08EC096F0B7
:1025E0009635963395339433933393C08BF094C0E0
:1025F0008CF095C08DF096C08EF09C4B9D2B9DBFAE
:102600000AEF13F09D5108E19C29D8A00AEF13F0BE
:102610000CEF13F017EF13F0000E9D6F9C69000E86
:102620008B6F000E8C6F000E8D6F000E8E6F9DBF36
:1026300024EF13F09D5106E19C05D8B022EF13F072
:1026400024EF13F032EF13F0000E9D6F000E9C6F1D
:10265000000E8B6F000E8C6F000E8D6F000E8E6F54
:10266000000E9B6F9CC0A2F0A2A139EF13F03BEFCC
:1026700013F03EEF13F08D8F3FEF13F08D9FD89046
:10268000A2318E6FF5EF11F012002A04D8A44BEF9F
:1026900013F04DEF13F0BCEF13F0000E2A6E0101A2
:1026A0004205D8B456EF13F058EF13F061EF13F072
:1026B000020E4219D8A45FEF13F061EF13F078EF28
:1026C00013F0640E3E27000E3F233FBF6FEF13F061
:1026D000040E3F5DD8A06FEF13F071EF13F005EF1C
:1026E00015F0030E3F6F3E6905EF15F005EF15F08D
:1026F000030E4219D8A47FEF13F081EF13F09EEF81
:1027000013F0640E3C27000E3D233A513C5D3D51D1
:10271000800A0001646F01013B51800A0001645985
:10272000D8A095EF13F097EF13F005EF15F0010126
:102730009C0E3C27FF0E3D2305EF15F0040E4219B9
:10274000D8A4A5EF13F0A7EF13F076EF13F0640E03
:102750003C27000E3D233DBFB5EF13F0040E3D5D59
:10276000D8A0B5EF13F0B7EF13F005EF15F0030E97
:102770003D6F3C6905EF15F0020E2A18D8A4C3EF8F
:1027800013F0C5EF13F02AEF14F0000E2A6E0101CA
:102790004205D8B4CEEF13F0D0EF13F0D9EF13F019
:1027A000020E4219D8A4D7EF13F0D9EF13F0EAEFD5
:1027B00013F09C0E3E27FF0E3F233FBFE4EF13F0C4
:1027C000E2EF13F005EF15F0000E3F6F000E3E6FC5
:1027D00005EF15F0030E4219D8A4F1EF13F0F3EF53
:1027E00013F004EF14F09C0E3C27FF0E3D233DBF79
:1027F000FEEF13F0FCEF13F005EF15F0000E3D6F48
:10280000000E3C6F05EF15F0040E4219D8A40BEF33
:1028100014F00DEF14F076EF13F09C0E3C27FF0E32
:102820003D233C513A5D3B51800A0001646F010138
:102830003D51800A00016459D8A021EF14F023EF24
:1028400014F005EF15F0640E01013C27000E3D2346
:1028500005EF15F0030E2A18D8A431EF14F033EF6A
:1028600014F09DEF14F0000E2A6E01014205D8B459
:102870003CEF14F03EEF14F047EF14F0020E421953
:10288000D8A445EF14F047EF14F059EF14F0640E9C
:102890003E27000E3F233FBF55EF14F0040E3F5D6F
:1028A000D8A055EF14F057EF14F005EF15F071EFC5
:1028B00013F0030E4219D8A460EF14F062EF14F085
:1028C00077EF14F0640E3A27000E3B233BBF70EF06
:1028D00014F0040E3B5DD8A070EF14F072EF14F00A
:1028E00005EF15F0030E3B6F3A6905EF15F0040E86
:1028F0004219D8A47EEF14F080EF14F076EF13F0B5
:10290000640E3A27000E3B233C513A5D3B51800A4E
:102910000001646F01013D51800A00016459D8A093
:1029200094EF14F096EF14F005EF15F001019C0EF2
:102930003A27FF0E3B2305EF15F0040E2A18D8A402
:10294000A4EF14F0A6EF14F005EF15F0000E2A6EB8
:1029500001014205D8B4AFEF14F0B1EF14F0BAEFB3
:1029600014F0020E4219D8A4B8EF14F0BAEF14F024
:10297000C7EF14F09C0E3E27FF0E3F233FBFC5EF6D
:1029800014F0C3EF14F005EF15F0E4EF13F0030EAD
:102990004219D8A4CEEF14F0D0EF14F0EDEF14F0FC
:1029A0009C0E3A27FF0E3B233A513C5D3D51800A75
:1029B0000001646F01013B51800A00016459D8A0F5
:1029C000E4EF14F0E6EF14F005EF15F0640E0101EA
:1029D0003A27000E3B2305EF15F0040E4219D8A448
:1029E000F4EF14F0F6EF14F076EF13F09C0E3A27A4
:1029F000FF0E3B233BBF01EF15F0FFEF14F005EF97
:102A000015F0000E3B6F000E3A6F1200EFC0D9FFB9
:102A1000F0C0DAFFDECFF6FFDDCFF7FF0800F5509C
:102A2000250AD8A416EF15F018EF15F09CEF16F054
:102A3000EFC0D9FFF0C0DAFFDE2A000EDD22000E63
:102A40001A6E000E196E19C029F01B681C68EFC0C1
:102A5000D9FFF0C0DAFFDECFF6FFDDCFF7FF0800C9
:102A6000F5502E0AD8A437EF15F039EF15F04EEFD8
:102A700015F0EFC0D9FFF0C0DAFFDE2A000EDD222C
:102A8000EFC06AF0F0C06BF0F1C06CF0F2C06DF016
:102A900036EC22F06AC01BF06BC01CF0EFC0D9FF0F
:102AA000F0C0DAFFDECFFAF0DDCFFBF0FAC0F6FFC0
:102AB000FBC0F7FF0800F550640AD8B462EF15F0C8
:102AC00064EF15F072EF15F0FAC0F6FFFBC0F7FFE8
:102AD0000800F550690AD8A470EF15F072EF15F0F0
:102AE000A1EF15F0F1C0D9FFF2C0DAFFDFCFF3F0AC
:102AF000020EDE26DFCFF4F0000EDD22F3C0D9FF98
:102B0000F4C0DAFFDECFF5F0DDCFF6F0010E000104
:102B1000FA25F36F000EFB21F46FEFC0D9FFF0C070
:102B2000DAFFF3C0DEFFF4C0DDFFEDC07FF0EEC0E2
:102B300080F0F5C081F0F6C082F0E8EC1DF0B1EF56
:102B400016F0EFC0D9FFF0C0DAFFDECFFAF0DDCF2C
:102B5000FBF0FAC0F6FFFBC0F7FF0800F5CFF9F075
:102B6000BEEF15F0FA4BFB2BD8EF15F06C0EF96F9A
:102B7000D8EF15F0000EF96FD8EF15F00001F951FC
:102B8000F36FF46BF451000AD8B4C9EF15F0BAEF43
:102B900015F0F3514C0AD8B4B2EF15F02A0AD8B4A4
:102BA000B6EF15F00A0AD8B4B2EF15F0BAEF15F087
:102BB000FAC0F6FFFBC0F7FF0800F550660AD8A47C
:102BC000E4EF15F0E6EF15F06EEF16F01CEF16F0DF
:102BD000F1C0D9FFF2C0DAFFDFCFF3F0040EDE263A
:102BE000DFCFF4F0000EDD22F3C0D9FFF4C0DAFF2E
:102BF000DECFF5F0DECFF6F0DECFF7F0DECFF8F087
:102C000031EF16F0F1C0D9FFF2C0DAFFDFCFF3F0F9
:102C1000040EDE26DFCFF4F0000EDD22F3C0D9FF74
:102C2000F4C0DAFFDECFF5F0DECFF6F0DECFF7F05E
:102C3000DECFF8F031EF16F0F951F36FF46BF45189
:102C4000000AD8B426EF16F031EF16F0F3514C0A13
:102C5000D8B402EF16F0200AD8B4E8EF15F031EF3F
:102C600016F0010EFA25F36F000EFB21F46FEFC092
:102C7000D9FFF0C0DAFFF3C0DEFFF4C0DDFF58EF8C
:102C800016F0EDC0B8F0EEC0B9F0F5C0BAF0F6C07D
:102C9000BBF0F7C0BCF0F8C0BDF0FAC0F6FFFBC057
:102CA000F7FF0800F5CFBEF00CEC03F0B1EF16F023
:102CB000FAC0F6FFFBC0F7FF0800F550F36FF46BA6
:102CC000F451000AD8B467EF16F06EEF16F0F35126
:102CD000660AD8B441EF16F06EEF16F0EFC0D9FFD8
:102CE000F0C0DAFFDECFF6FFDDCFF7FF0800F550CA
:102CF000250AD8A47EEF16F080EF16F093EF16F0B9
:102D0000EFC0D9FFF0C0DAFFDE2A000EDD22000E90
:102D1000656F250E646FEDC066F0EEC067F0D0EC15
:102D200021F0B1EF16F0EFC0D9FFF0C0DAFFDE2AD4
:102D3000000EDD22B1EF16F0EFC0D9FFF0C0DAFFD0
:102D4000DECFF6FFDDCFF7FF0800F5500001646F1E
:102D5000656BEDC066F0EEC067F0D0EC21F093EF4C
:102D600016F012000101E16F020E0101E119D8A471
:102D7000BCEF16F0BEEF16F043EF17F0840E36EC02
:102D800027F0000E00018B6F000E8C6F800E8D6F90
:102D90003F0E8E6FBD0E766F370E776F860E786F93
:102DA000350E796FA9C172F0AAC173F0ABC174F08E
:102DB000ACC175F04CEC0DF072C08FF073C090F0A8
:102DC00074C091F075C092F077EC11F08BC020F1D7
:102DD0008CC021F18DC022F18EC023F1000E0001C4
:102DE000766F000E776F700E786F420E796F20C18C
:102DF00072F021C173F022C174F023C175F04CEC64
:102E00000DF072C08BF073C08CF074C08DF075C083
:102E10008EF0000E00018F6F000E906FA00E916F6C
:102E2000410E926F77EC11F08BC01CF18CC01DF13C
:102E30008DC01EF18EC01FF11CC164F01DC165F074
:102E40001EC166F01FC167F05FEC1FF064C0E2F1C5
:102E500065C0E3F1960E0101C96F010ECA6F010E44
:102E6000CB6F060ECC6F2CC1CDF12DC1CEF12EC192
:102E7000CFF12FC1D0F1E2C1D1F1E3C1D2F1E8EC41
:102E800025F0CFEF17F0030EE119D8A44AEF17F0A1
:102E90004CEF17F0CFEF17F0C40E36EC27F0000E12
:102EA00000018B6F000E8C6F800E8D6F3F0E8E6F4A
:102EB000BD0E766F370E776F860E786F350E796F91
:102EC000A5C172F0A6C173F0A7C174F0A8C175F0D6
:102ED0004CEC0DF072C08FF073C090F074C091F0A4
:102EE00075C092F077EC11F08BC018F18CC019F11D
:102EF0008DC01AF18EC01BF1000E0001766F000E1E
:102F0000776F700E786F420E796F18C172F019C129
:102F100073F01AC174F01BC175F04CEC0DF072C067
:102F20008BF073C08CF074C08DF075C08EF0000E05
:102F300000018F6F000E906FA00E916F410E926F87
:102F400077EC11F08BC014F18CC015F18DC016F127
:102F50008EC017F114C164F015C165F016C166F09A
:102F600017C167F05FEC1FF064C0E2F165C0E3F1E8
:102F7000960E0101C96F010ECA6F010ECB6F060ECE
:102F8000CC6F2CC1CDF12DC1CEF12EC1CFF12FC10F
:102F9000D0F1E2C1D1F1E3C1D2F1E8EC25F0000EAD
:102FA0000101416F000E406FE3EF17F0960E010133
:102FB0004025D96E010E4121DA6EDF5028EC27F052
:102FC0000101404B412B960E0001646F010E656FAD
:102FD0009AEC26F0010140510001645D010141516C
:102FE00000016559D8B0F7EF17F0F9EF17F0D6EFF9
:102FF00017F01200F3CF53F0F4CF54F09EAA03EF72
:1030000018F005EF18F0CCEF18F0AECF55F06D0EBC
:103010005518D8B40EEF18F010EF18F019EF18F09B
:103020004D0E5518D8A417EF18F019EF18F020EF2F
:1030300018F0000E0101396F010E386FCCEF18F057
:10304000610E5518D8B427EF18F029EF18F032EFB9
:1030500018F0410E5518D8A430EF18F032EF18F0E0
:1030600039EF18F0000E0101396F020E386FCCEF06
:1030700018F0730E5518D8B440EF18F042EF18F05E
:103080004BEF18F0530E5518D8A449EF18F04BEF3A
:1030900018F052EF18F0000E0101396F030E386F6F
:1030A000CCEF18F0300E5518D8A459EF18F05BEF9C
:1030B00018F060EF18F0000E0101426FCCEF18F02D
:1030C000310E5518D8A467EF18F069EF18F06EEFBD
:1030D00018F0010E0101426FCCEF18F0320E5518B6
:1030E000D8A475EF18F077EF18F07CEF18F0020E07
:1030F0000101426FCCEF18F0330E5518D8A483EFBE
:1031000018F085EF18F08AEF18F0030E0101426FF6
:10311000CCEF18F0340E5518D8A491EF18F093EFB7
:1031200018F098EF18F0040E0101426FCCEF18F080
:10313000350E5518D8A49FEF18F0A1EF18F0A5EFA1
:1031400018F0010E2A6ECCEF18F0360E5518D8A4E0
:10315000ACEF18F0AEEF18F0B2EF18F0020E2A6ED6
:10316000CCEF18F0370E5518D8A4B9EF18F0BBEF14
:1031700018F0BFEF18F0030E2A6ECCEF18F0380EDF
:103180005518D8A4C6EF18F0C8EF18F0CCEF18F017
:10319000040E2A6ECCEF18F09EA4D1EF18F0D3EFF6
:1031A00018F003EF19F0CECF27F0CFCF28F027C0CB
:1031B0002CF028C02DF02E6A2F6A000E0EEC1DF0A8
:1031C0002CC03AF02DC03BF02EC03CF02FC03DF09B
:1031D000000E3E6E000E3F6E000E406E410E416EC0
:1031E00062EC0FF03AC0A9F13BC0AAF13CC0ABF1D0
:1031F0003DC0ACF1000EBF6E000EBE6E000ECF6E75
:10320000000ECE6E9E947BA408EF19F00AEF19F021
:103210003BEF19F04FCF25F050CF26F025C02CF012
:1032200026C02DF02E6A2F6A000E0EEC1DF02CC069
:103230003AF02DC03BF02EC03CF02FC03DF0000E08
:103240003E6E000E3F6E000E406E410E416E62EC0F
:103250000FF03AC0A5F13BC0A6F13CC0A7F13DC0BC
:10326000A8F1000E0F01566F000E556F000E506F43
:10327000000E4F6F7B9454C0F4FF53C0F3FF56927F
:10328000110001C0B4F002C0B5F003C0B6F004C034
:10329000B7F0A4C0B4F0A5C0B5F0A6C0B6F0A7C002
:1032A000B7F0810E0001A86FFF0EA96FB4C0AAF09D
:1032B000B5C0ABF0B6C0ACF0B7C0ADF0180E66EF5D
:1032C00019F0D890AD33AC33AB33AA33E82E61EFAD
:1032D00019F0AA51A825B26F000EA921B36FB3BF90
:1032E0007BEF19F0B35109E1170EB25DD8A07BEF67
:1032F00019F07DEF19F087EF19F0A4C0A4F0A5C074
:10330000A5F0A6C0A6F0A7C0A7F04BEF1AF0B3BF78
:103310008CEF19F08EEF19F0FFEF19F0B2C0A8F0A2
:10332000FF0EA96FFF0EAA6F7F0EAB6F000EAC6F82
:10333000A8679DEF19F0A5EF19F0AC35AC33AB33AE
:10334000AA33A933A82F98EF19F0A9C0AEF0AAC0EC
:10335000AFF0ABC0B0F0ACC0B1F00001AE51B415ED
:10336000A86FAF51B515A96FB051B615AA6FB1517D
:10337000B715AB6FA851A911AA11AB11D8A4C3EF0F
:1033800019F0C5EF19F0C7EF19F07DEF19F0B4C0CF
:10339000A8F0B5C0A9F0B6C0AAF0B7C0ABF0200E37
:1033A000D7EF19F0D890AB33AA33A933A833E82E5E
:1033B000D2EF19F0A851A911AA11AB11D8B4E3EFBB
:1033C00019F0E5EF19F0EDEF19F0AE51B427AF5158
:1033D000B523B051B623B151B723AE1DA86FAF1DB1
:1033E000A96FB01DAA6FB11DAB6FA851B417A95139
:1033F000B517AA51B617AB51B71743EF1AF0B4C0BF
:10340000A8F0B5C0A9F0B6C0AAF0B7C0ABF0200EC6
:103410000FEF1AF0D890AB33AA33A933A833E82EB4
:103420000AEF1AF0A851A911AA11AB11D8A41BEFE9
:103430001AF01DEF1AF027EF1AF0000EB46F000E0D
:10344000B56F000EB66F000EB76F43EF1AF0D8904D
:10345000B435A86FB535A96FB635AA6FB735AB6F60
:10346000A851A911AA11AB11D8B439EF1AF03BEF4A
:103470001AF043EF1AF0000EB46F000EB56F800E15
:10348000B66FBF0EB76FB4C0A4F0B5C0A5F0B6C09C
:10349000A6F0B7C0A7F0120001014351D8A453EF22
:1034A0001AF055EF1AF05EEF1AF0010E3B6F000EA6
:1034B0003A6F020E3D6F3C69010E436F000E446F80
:1034C0003CC164F03DC165F00001000E65BFFF0E18
:1034D000666F676F010E32EC1CF064C072F065C05D
:1034E00073F066C074F067C075F0900E0001766FDF
:1034F0003E0E776F7A0E786F3E0E796F4CEC0DF0C2
:1035000072C0B1F173C0B2F174C0B3F175C0B4F15F
:10351000B1C172F0B2C173F0B3C174F0B4C175F04F
:10352000CD0E0001766FCC0E776FCC0E786F3E0E0D
:10353000796F4CEC0DF072C02CF173C02DF174C09A
:103540002EF175C02FF1B1C164F0B2C165F0B3C105
:1035500066F0B4C167F05FEC1FF0000165356533BC
:1035600064336535653364336451676EB1C164F0AB
:10357000B2C165F0B3C166F0B4C167F05FEC1FF093
:10358000030E00016417643BF00E641766500F0BC6
:103590006411666E020EB2EC16F03AC164F03BC1E3
:1035A00065F00001000E65BFFF0E666F676F010ECC
:1035B00032EC1CF064C072F065C073F066C074F049
:1035C00067C075F0900E0001766F3E0E776F7A0E31
:1035D000786F3E0E796F4CEC0DF072C0ADF173C098
:1035E000AEF174C0AFF175C0B0F1ADC172F0AEC153
:1035F00073F0AFC174F0B0C175F0CD0E0001766FFD
:10360000CC0E776FCC0E786F3E0E796F4CEC0DF0D0
:1036100072C02CF173C02DF174C02EF175C02FF162
:10362000ADC164F0AEC165F0AFC166F0B0C167F086
:103630005FEC1FF000016535653364336535653334
:10364000643364510F015E6FADC164F0AEC165F0CB
:10365000AFC166F0B0C167F05FEC1FF0030E000170
:103660006417643BF00E64170F015D510F0B0001EE
:1036700064110F015D6F030EB2EC16F01200010130
:103680004451D8A446EF1BF048EF1BF051EF1BF05C
:10369000010E3D6F000E3C6F020E3B6F3A69010E4A
:1036A000446F000E436F3CC164F03DC165F0000102
:1036B000000E65BFFF0E666F676F010E32EC1CF0E7
:1036C00064C072F065C073F066C074F067C075F0D6
:1036D000900E0001766F3E0E776F7A0E786F3E0E79
:1036E000796F4CEC0DF072C0B9F173C0BAF174C0CF
:1036F000BBF175C0BCF1B9C172F0BAC173F0BBC106
:1037000074F0BCC175F0CD0E0001766FCC0E776FF2
:10371000CC0E786F3E0E796F4CEC0DF072C02CF130
:1037200073C02DF174C02EF175C02FF1B9C164F0D2
:10373000BAC165F0BBC166F0BCC167F05FEC1FF0B9
:103740000001653565336433653565336433645131
:10375000676EB9C164F0BAC165F0BBC166F0BCC1A7
:1037600067F05FEC1FF0030E00016417643BF00E7E
:10377000641766500F0B6411666E020EB2EC16F001
:103780003AC164F03BC165F00001000E65BFFF0E59
:10379000666F676F010E32EC1CF064C072F065C09A
:1037A00073F066C074F067C075F0900E0001766F1C
:1037B0003E0E776F7A0E786F3E0E796F4CEC0DF0FF
:1037C00072C0B5F173C0B6F174C0B7F175C0B8F18D
:1037D000B5C172F0B6C173F0B7C174F0B8C175F07D
:1037E000CD0E0001766FCC0E776FCC0E786F3E0E4B
:1037F000796F4CEC0DF072C02CF173C02DF174C0D8
:103800002EF175C02FF1B5C164F0B6C165F0B7C136
:1038100066F0B8C167F05FEC1FF0000165356533F5
:10382000643365356533643364510F015E6FB5C130
:1038300064F0B6C165F0B7C166F0B8C167F05FEC7F
:103840001FF0030E00016417643BF00E64170F01B4
:103850005D510F0B000164110F015D6F030EB2EC9F
:1038600016F0120000016C6F00016C51D8B43BEFF0
:103870001CF03DEF1CF05FEF1CF067BF44EF1CF045
:1038800042EF1CF05FEF1CF064C068F065C069F0A7
:1038900066C06AF067C06BF0681F691F6A1F6B1F04
:1038A000682B000E69236A236B2368C06EF069C021
:1038B0006FF06AC070F06BC071F067EF1CF064C00D
:1038C0006EF065C06FF066C070F067C071F0645153
:1038D000651166116711D8A470EF1CF072EF1CF02F
:1038E0007CEF1CF0000E646F000E656F000E666FBB
:1038F000000E676F0DEF1DF0960E6D6F86EF1CF0DA
:103900006D2BD890713370336F336E33000E6E159C
:10391000686F000E6F15696F000E70156A6FFE0EEE
:1039200071156B6F685169116A116B11D8A49BEF07
:103930001CF09DEF1CF080EF1CF0ABEF1CF06D2B2A
:10394000010E6E27000E6F2370237123D890713300
:1039500070336F336E33000E6E15686F000E6F1587
:10396000696F000E70156A6FFF0E71156B6F6851ED
:1039700069116A116B11D8A4C0EF1CF0C2EF1CF0E2
:103980009FEF1CF0CAEF1CF06D07D8906E376F37B1
:103990007037713770BFCFEF1CF0D1EF1CF0D9EF4B
:1039A0001CF0020E6D61D7EF1CF0D9EF1CF0C4EFD4
:1039B0001CF06DB1DEEF1CF0E0EF1CF0E1EF1CF04D
:1039C000709FD8906D336DC068F0696B6A6B6B6BDC
:1039D00068C06BF06A6B696B686B68516E136951F4
:1039E0006F136A5170136B5171136C51D8B4FBEFA4
:1039F0001CF0FDEF1CF005EF1DF067BF04EF1DF09C
:103A000002EF1DF005EF1DF0718F6EC064F06FC006
:103A100065F070C066F071C067F01200346E34500B
:103A2000D8B415EF1DF017EF1DF039EF1DF02FBEC4
:103A30001EEF1DF01CEF1DF039EF1DF02CC030F013
:103A40002DC031F02EC032F02FC033F0301E311EA9
:103A5000321E331E302A000E31223222332230C071
:103A600036F031C037F032C038F033C039F041EFB2
:103A70001DF02CC036F02DC037F02EC038F02FC00E
:103A800039F02C502D102E102F10D8A44AEF1DF015
:103A90004CEF1DF056EF1DF0000E2C6E000E2D6E3B
:103AA000000E2E6E000E2F6EE7EF1DF0960E356E97
:103AB00060EF1DF0352AD89039323832373236323D
:103AC000000E3614306E000E3714316E000E3814AE
:103AD000326EFE0E3914336E305031103210331006
:103AE000D8A475EF1DF077EF1DF05AEF1DF085EFAC
:103AF0001DF0352A010E3626000E372238223922D3
:103B0000D8903932383237323632000E3614306EB1
:103B1000000E3714316E000E3814326EFF0E391459
:103B2000336E3050311032103310D8A49AEF1DF09C
:103B30009CEF1DF079EF1DF0A4EF1DF03506D89035
:103B4000363637363836393638BEA9EF1DF0ABEF8A
:103B50001DF0B3EF1DF0020E3560B1EF1DF0B3EFB5
:103B60001DF09EEF1DF035B0B8EF1DF0BAEF1DF05F
:103B7000BBEF1DF0389ED890353235C030F0316A39
:103B8000326A336A30C033F0326A316A306A305098
:103B900036123150371232503812335039123450F5
:103BA000D8B4D5EF1DF0D7EF1DF0DFEF1DF02FBE1D
:103BB000DEEF1DF0DCEF1DF0DFEF1DF0398E36C0BB
:103BC0002CF037C02DF038C02EF039C02FF0120085
:103BD000000182BFEEEF1DF0F1EF1DF0010EF2EFDC
:103BE0001DF0000E896F8951D8B4F9EF1DF0FBEF7D
:103BF0001DF0FFEF1DF0816D821FD8B0822B1CBE1F
:103C000006EF1EF004EF1EF00CEF1EF0000E866FA4
:103C1000010E856F10EF1EF01BC085F01CC086F0F2
:103C200019C087F01AC088F08951D8B41AEF1EF075
:103C30001CEF1EF033EF1EF08707D8A088078951CC
:103C4000D8A425EF1EF027EF1EF02DEF1EF0000E7A
:103C5000846F2B0E836F31EF1EF0000E846F2D0EDC
:103C6000836F83C089F0000E8B6F4F0E8A6F000E3A
:103C70000101956F6DEF1EF08A07D8A08B07460EE5
:103C80008A25D96E010E8B21DA6E81C064F082C064
:103C900065F0000E676F0A0E666F59EC23F064C082
:103CA0006AF065C06BF079EC26F000016A51300FC4
:103CB000DF6E8507D8A086078707D8A0880781C050
:103CC00064F082C065F0000E676F0A0E666F9BECB1
:103CD00022F064C081F065C082F000018BBF79EFF3
:103CE0001EF08B5108E18A05D8A079EF1EF07BEF1A
:103CF0001EF091EF1EF081518211D8A482EF1EF0C8
:103D000084EF1EF03CEF1EF086BF91EF1EF086514F
:103D100006E18505D8B08FEF1EF091EF1EF03CEF65
:103D20001EF08951D8B497EF1EF099EF1EF0A4EF62
:103D30001EF08A07D8A08B07460E8A25D96E010E81
:103D40008B21DA6E89C0DFFF7FC074F080C075F010
:103D5000460E8A25766F010E8B21776F87C078F02B
:103D600088C079F0FAEC24F0120001014551D8A482
:103D7000BCEF1EF0BEEF1EF0C3EF1EF0010E3F6F52
:103D80003E69010E456F3EC164F03FC165F0000120
:103D9000000E65BFFF0E666F676F010E32EC1CF000
:103DA00064C072F065C073F066C074F067C075F0EF
:103DB000900E0001766F3E0E776F7A0E786F3E0E92
:103DC000796F4CEC0DF072C0BDF173C0BEF174C0E0
:103DD000BFF175C0C0F1BDC172F0BEC173F0BFC10B
:103DE00074F0C0C175F0CD0E0001766FCC0E776F08
:103DF000CC0E786F3E0E796F4CEC0DF072C02CF14A
:103E000073C02DF174C02EF175C02FF1BDC164F0E7
:103E1000BEC165F0BFC166F0C0C167F05FEC1FF0C6
:103E2000000165356533643365356533643364514A
:103E3000676EBDC164F0BEC165F0BFC166F0C0C1B0
:103E400067F05FEC1FF0030E00016417643BF00E97
:103E5000641766500F0B6411666E020EB2EC16F01A
:103E6000BDC164F0BEC165F0BFC166F0C0C167F0FE
:103E70005FEC1FF0000165356533643365356533EC
:103E8000643364510F015E6FBDC164F0BEC165F063
:103E9000BFC166F0C0C167F05FEC1FF0030E000108
:103EA0006417643BF00E64170F015D510F0B0001A6
:103EB00064110F015D6F030EB2EC16F012000001E9
:103EC000663567356D6F6D51D8A469EF1FF06BEFE4
:103ED0001FF075EF1FF0000E646F000E656F000E8F
:103EE000666F000E676FE2EF1FF064C068F065C098
:103EF00069F066C06AF067C06BF0200E85EF1FF0B6
:103F0000D8906B336A3369336833E82E80EF1FF043
:103F100068516C6F668FFF0E6417FF0E6517FF0EFA
:103F20006617000E6717960E6D5F6DBF9CEF1FF052
:103F30009AEF1FF0B2EF1FF06D51800A970FD8B0C3
:103F4000A4EF1FF0A6EF1FF0A8EF1FF06BEF1FF01C
:103F5000D89067336633653364336D3FA8EF1FF045
:103F6000CAEF1FF01F0E6D65B8EF1FF0BAEF1FF01C
:103F7000C2EF1FF06BEF1FF0D890643765376637DC
:103F800067376D076D51D8A4C8EF1FF0CAEF1FF057
:103F9000BCEF1FF06C51D8B4D0EF1FF0D2EF1FF080
:103FA000DAEF1FF0671F661F651F646D000E652343
:103FB0006623672364C064F065C065F066C066F080
:103FC00067C067F01200000E00018B15936F000EA2
:103FD0008C15946F800E8D15956F7F0E8E15966FD4
:103FE0009351941195119611D8A4F9EF1FF0FBEF9E
:103FF0001FF003EF20F0000E8B6F000E8C6F000E91
:104000008D6F000E8E6F000E8F15936F000E901542
:10401000946F800E9115956F7F0E9215966F935148
:10402000941195119611D8A418EF20F01AEF20F0F2
:1040300022EF20F0000E8F6F000E906F000E916F38
:10404000000E926F8EAF27EF20F029EF20F032EFB5
:1040500020F08B6D8C1FD8B08C2B8D1FD8B08D2B82
:10406000800E8E5792AF37EF20F039EF20F042EFFD
:1040700020F08F6D901FD8B0902B911FD8B0912B4E
:10408000800E9257000E8B1B000E8C1B000E8D1B9A
:10409000800E8E1B000E8F1B000E901B000E911BBE
:1040A000800E921B8F518B5D90518C5991518D597F
:1040B00092518E59D8B05FEF20F061EF20F064EF9D
:1040C00020F0D89065EF20F0D8801200520ED36E09
:1040D000010E0F01386F000E396F000E3A6F000E9F
:1040E0003B6F000E3C6F010E926EF00E936E948447
:1040F000000E956E040E966E000E896E000E8A6E8E
:10410000000E8C6E000E8D6E010EC26E000EC16E22
:10411000940EC06E3E0EBB6E2E0E676E000E5E6F6E
:10412000020EBA6E000EBC6E3C0E666E0C0E5D6F1B
:10413000020E36EC27F0060E36EC27F00E0E36ECAB
:1041400027F0280E36EC27F0010E36EC27F0FEECB7
:1041500022F0949C948E190EAF6E900EAB6E240ECE
:10416000AC6EF28EF28CD08E9D8A9E9A9F8AF286D9
:10417000F290F00E626EF1909D849E947A847B940E
:10418000050EBD6E000EBF6E000EBE6E050E0F0159
:10419000546F000E566F000E556F320ECD6E000E2E
:1041A000CF6E000ECE6E320E4E6F000E506F000EB0
:1041B0004F6FCD804E81BA84C282A082A192A2921A
:1041C000120EB16E3C0EB36EAF0EB26E120005C091
:1041D0006EF006C06FF007C070F008C071F064C0E8
:1041E0006EF065C06FF066C070F067C071F06EC0B1
:1041F00068F06FC069F070C06AF071C06BF0180EA3
:1042000008EF21F00001D8906B336A3369336833CB
:10421000E82E02EF21F068516C6F6D6B6C516D11DF
:10422000D8A415EF21F017EF21F037EF21F0D89047
:104230006E35686F6F35696F70356A6F71356B6F8A
:10424000685169116A116B11D8A429EF21F02BEF85
:1042500021F031EF21F0000E656F020E646F66EF02
:1042600021F0000E656F030E646F66EF21F06C297C
:104270006D11D8A43EEF21F040EF21F062EF21F064
:104280006EC068F06FC069F070C06AF071C06BF00A
:10429000090ED890683769376A376B37E82E49EFCF
:1042A00021F0685169116A116B11D8B45AEF21F0ED
:1042B0005DEF21F0010E5EEF21F0000E646F656B83
:1042C00066EF21F0000E656F040E646F12000101AD
:1042D0004251D8A46EEF21F070EF21F074EF21F07D
:1042E0005CEC27F0CDEF21F04205D8A47AEF21F065
:1042F0007CEF21F08DEF21F036513711D8A483EFF8
:1043000021F085EF21F089EF21F0F9EC26F0CDEFD7
:1043100021F0E8EC26F0CDEF21F0020E4219D8A4EE
:1043200094EF21F096EF21F0A3EF21F036513711F1
:10433000D8A49DEF21F09FEF21F089EF21F009EC47
:1043400027F0CDEF21F0030E4219D8A4AAEF21F0F7
:10435000ACEF21F0B9EF21F036513711D8A4B3EF0B
:1043600021F0B5EF21F089EF21F055EC27F0CDEFEA
:1043700021F0040E4219D8A4C0EF21F0C2EF21F0C1
:10438000CDEF21F036513711D8A4C9EF21F0CBEF92
:1043900021F089EF21F04EEC27F045EC13F01200EC
:1043A000000166516711D8B4D8EF21F0DAEF21F09F
:1043B000E3EF21F066516711D8A4E1EF21F0E3EFBC
:1043C00021F0E8EF21F0645163EC27F035EF22F0A3
:1043D00020EE0AF06651D9266751DA22DE50DE104F
:1043E000D8B4F5EF21F0F7EF21F012EF22F020EE34
:1043F0000AF06651D9266751DA2210EE03F06651B1
:10440000E1266751E222DE50E65CE650800A6C6FDE
:10441000DE50800A6C59D8B010EF22F012EF22F073
:1044200035EF22F020EE03F06651D9266751DA22EB
:10443000DECF68F0DDCF69F066C0D9FF67C0DAFF74
:10444000DECF6AF0DDCF6BF068516A25D96E695115
:104450006B21DA6E64C0DFFF20EE03F06651D926CF
:104460006751DA22DE2A000EDD221200000E000162
:10447000726F000E716F6AC0D9FF6BC0DAFFDECFBA
:10448000F6FFDDCFF7FF0800F5502A0AD8A44BEF5E
:1044900022F04DEF22F082EF22F06AC0D9FF6BC00C
:1044A000DAFFDE2A000EDD226CC0D9FF6DC0DAFF14
:1044B000DFCF6EF0020EDE26DFCF6FF0000EDD22C2
:1044C0006EC0D9FF6FC0DAFFDECF71F0DDCF72F0C2
:1044D00096EF22F071C064F072C065F0000E676F55
:1044E0000A0E666FD4EC26F0000170516425716FDE
:1044F000000E6521726F6AC0D9FF6BC0DAFFDE2A39
:10450000000EDD226AC0D9FF6BC0DAFFDECFF6FFF6
:10451000DDCFF7FF0800F550D00F706F090E706502
:1045200094EF22F096EF22F06AEF22F071C06AF069
:1045300072C06BF01200000E0001696F67BFA5EF3B
:1045400022F0A3EF22F0ABEF22F0666D671FD8B028
:10455000672B010E696F65BFB2EF22F0B0EF22F05A
:10456000B8EF22F0646D651FD8B0652B010E691B92
:10457000000E6B6F000E6A6F66516711D8B4C3EFFF
:1045800022F0C5EF22F0EDEF22F0010E686FCDEFC3
:1045900022F0D89066376737682B67AFD2EF22F0EA
:1045A000D4EF22F0C9EF22F0D8906A376B3766510A
:1045B000645D67516559D8A0E0EF22F0E2EF22F088
:1045C000E7EF22F06651645F6751655B6A81D890BE
:1045D00067336633682FD4EF22F06951D8B4F3EF14
:1045E00022F0F5EF22F0F9EF22F06A6D6B1FD8B0E0
:1045F0006B2B6AC064F06BC065F01200800E36EC65
:1046000027F0000E0101416F000E406F15EF23F0FF
:10461000EF0E01014025D96E010E4121DA6EDF5007
:1046200028EC27F00101404B412BEF0E0001646F95
:10463000010E656F9AEC26F0010140510001645DA6
:104640000101415100016559D8B029EF23F02BEF4A
:1046500023F008EF23F0C00E36EC27F0000E010126
:10466000416F000E406F42EF23F0E50E010140253F
:10467000D96E010E4121DA6EDF5028EC27F00101DE
:10468000404B412BE50E0001646F010E656F9AEC03
:1046900026F0010140510001645D0101415100011A
:1046A0006559D8B056EF23F058EF23F035EF23F0DB
:1046B0001200000E0001696F65BF63EF23F061EF28
:1046C00023F069EF23F0646D651FD8B0652B010EF0
:1046D000696F67BF70EF23F06EEF23F074EF23F084
:1046E000666D671FD8B0672B66516711D8B47BEF32
:1046F00023F07DEF23F0A1EF23F0010E686F85EF2B
:1047000023F0D89066376737682B67AF8AEF23F0BE
:104710008CEF23F081EF23F06651645D675165599A
:10472000D8A095EF23F097EF23F09BEF23F066518D
:10473000645F6751655BD89067336633682F8CEF91
:1047400023F06951D8B4A7EF23F0A9EF23F0ADEF20
:1047500023F0646D651FD8B0652B64C064F065C03C
:1047600065F012000001656F8A82210EE82EFED7E7
:1047700000F065C064F0010E000164178C506419EC
:10478000FE0B64198C6E210EE82EFED700F065C07A
:1047900064F00001D8906433010E641764478C50B4
:1047A0006419FD0B64198C6E210EE82EFED700F003
:1047B00065C064F00001D8906433D8906433010E72
:1047C0006417644764478C506419FB0B64198C6E42
:1047D000210EE82EFED700F065C064F00001D890ED
:1047E0006433D8906433D8906433010E64176447FF
:1047F000644764478C506419F70B64198C6E210E62
:10480000E82EFED700F08A92210EE82EFED700F0A7
:104810001200000E000164156C6F000E65156D6FBF
:10482000800E66156E6F7F0E67156F6F6C516D1180
:104830006E116F11D8A41FEF24F021EF24F029EF9F
:1048400024F0000E646F000E656F000E666F000EA0
:10485000676F000E68156C6F000E69156D6F800E26
:104860006A156E6F7F0E6B156F6F6C516D116E1147
:104870006F11D8A43EEF24F040EF24F048EF24F06D
:10488000000E686F000E696F000E6A6F000E6B6F8E
:10489000685164190FE1695165190CE16A51661993
:1048A00009E16B516719D8B458EF24F05AEF24F09E
:1048B0005DEF24F0D8905EEF24F0D880120066EC13
:1048C00020F0010138053911D8A469EF24F06BEF0D
:1048D00024F089EF24F036513711D8A472EF24F078
:1048E00074EF24F07BEF24F0898489968A9467EC36
:1048F00021F061EF24F036053711D8A482EF24F0BF
:1049000084EF24F0AFEF24F08A845CEC27F061EFB1
:1049100024F0020E38193911D8A491EF24F093EF46
:1049200024F061EF24F036513711D8A49AEF24F027
:104930009CEF24F0A3EF24F0898689948A940CECF0
:1049400008F061EF24F036053711D8A4AAEF24F05F
:10495000ACEF24F061EF24F08A8485EF24F061EF5E
:1049600024F066EF00F0C282C2B2B9EF24F0BBEFD0
:1049700024F0B4EF24F0820E00018B6FDD0EE82EE0
:10498000FED78B2FFCD700D0C350C4CF8BF00001D3
:104990008C6B8BC08CF08B6B8B111D6E8C511E6ED3
:1049A0001DC064F01EC065F0000E65BFFF0E666F8F
:1049B000676F010E32EC1CF064C072F065C073F0DA
:1049C00066C074F067C075F00A0E0001766F280E9D
:1049D000776FA00E786F3B0E796F4CEC0DF072C0C4
:1049E00030F173C031F174C032F175C033F100D0D1
:1049F00000F01200000179BF00EF25F002EF25F072
:104A000008EF25F078C07DF079C07EF00CEF25F03E
:104A1000000E7E6F000E7D6F000E7C6F000E7B6FB0
:104A20001FEF25F0000E656F200E646F74C066F0F6
:104A300075C067F0D0EC21F000017B4B7C2B7D51E1
:104A40007B5D7C51800A7A6F7E51800A7A59D8A0AA
:104A50002CEF25F02EEF25F012EF25F076C06DF04B
:104A600077C06EF074C06FF075C070F034EC26F053
:104A70001200000167BF49EF25F06751661165110B
:104A800006E16405D8B047EF25F049EF25F064EF63
:104A900025F064C068F065C069F066C06AF067C060
:104AA0006BF0681F691F6A1F6B1F682B000E69235C
:104AB0006A236B2368C064F069C065F06AC066F061
:104AC0006BC067F06CEF25F064C064F065C065F002
:104AD00066C066F067C067F01200880EF66E4E0E74
:104AE000F76E000EF86E01EEE5F010EE14F009001E
:104AF000F5CFEEFFE550E150FAE102EE00F0280EAE
:104B0000EE6AE806FDE101EE00F0C10EEE6AE8068D
:104B1000FDE100EE01F02B0EEE6AE806FDE1569095
:104B20005692000EF86E00015FEF24F0C3C1C7F18A
:104B3000C4C1C8F1ABEF25F0C1C1EDF0C2C1EEF0C8
:104B4000C70E0001EF6F010EF06FC5C1F1F0C6C1D5
:104B5000F2F006EC15F0C7C1F6FFC8C1F7FF080078
:104B6000F5500009D8A4B7EF25F0B9EF25F09CEF78
:104B700025F0000E0101C26F000EC16F120066C069
:104B80006DF067C06EF064C06BF065C06CF0D9EF7B
:104B900025F06DC0D9FF6EC0DAFFDF506A6F6D4B34
:104BA0006E2B6BC0D9FF6CC0DAFF6AC0DFFF6B4BA6
:104BB0006C2B00016807D8A06907682906E16929FC
:104BC000D8A4E5EF25F0E7EF25F0C9EF25F01200B6
:104BD000CD0E0101D36F010ED46FC9C1D5F1CAC189
:104BE000D6F1000ED96F000ED86F000EE06F000EE8
:104BF000DF6FD50EC16F010EC26FCBC1C3F1CCC147
:104C0000C4F1D30EC56F010EC66F96EC25F00101FD
:104C1000D851C925D96ED951CA21DA6EDF6A12007E
:104C2000000E00018F1B000E901B000E911B800ECA
:104C3000921B8BC064F08CC065F08DC066F08EC096
:104C400067F08FC068F090C069F091C06AF092C0C0
:104C50006BF0EBEC0AF064C08BF065C08CF066C0C2
:104C60008DF067C08EF01200000E0001736F000E11
:104C7000726F47EF26F071C064F0656B6FC066F02D
:104C800070C067F0D0EC21F00001724B732B7251B1
:104C90006D25D96E73516E21DA6EDF50716F7151CF
:104CA000D8A455EF26F057EF26F03BEF26F0120080
:104CB00066C068F067C069F064C06AF065C06BF0F8
:104CC00068C0F6FF69C0F7FF0001684B692B6AC036
:104CD000D9FF6BC0DAFF6A4B6B2B0800F5CFDFFF03
:104CE000DF50D8A476EF26F078EF26F060EF26F0BC
:104CF000120000016BBF87EF26F06B5106E16A05D9
:104D0000D8B085EF26F087EF26F095EF26F06AC041
:104D10006CF06BC06DF06C1F6D1F6C4B6D2B6CC01D
:104D20006AF06DC06BF099EF26F06AC06AF06BC054
:104D30006BF0120064C066F065C067F0A3EF26F068
:104D40000001644B652B64C0D9FF65C0DAFFDF50FA
:104D5000D8A4ADEF26F0AFEF26F0A0EF26F00001CB
:104D60006651645D646F67516559656F120000019B
:104D70006451651166116711D8B4C1EF26F0C3EF15
:104D800026F0CBEF26F0000E641B000E651B000E14
:104D9000661B800E671B64C064F065C065F066C06A
:104DA00066F067C067F01200000164516603F3CF3C
:104DB00068F0F4CF69F064516703F35069276551D7
:104DC0006603F350692768C064F069C065F012009B
:104DD0005CEC27F062EC27F0010136513711D8A4C2
:104DE000F4EF26F0F6EF26F0E8EF26F061EC27F07E
:104DF0001200820E0101E46FDD0EE82EFED7E42FD3
:104E0000FCD700D0B5EC1EF08988899A898C899EE0
:104E10001200820E0101E46FDD0EE82EFED7E42FB2
:104E2000FCD700D0B5EC1EF08998898A899C898EC0
:104E30001200B1905CEC27F0010136513711D8A473
:104E400024EF27F026EF27F01AEF27F0B1801200A9
:104E50000001666F8A80000166390F0BB2EC23F007
:104E6000000166510F0BB2EC23F012000001666FD7
:104E70008A90000166390F0BB2EC23F000016651F5
:104E80000F0BB2EC23F012004D443A00000000007A
:104E900000004D493A000000000000004CEC1AF000
:104EA0008988899A898C899E12003FEC1BF0898839
:104EB000899A898C899E12008998899A899C899EF1
:084EC0001200120012001200A2
:020000040020DA
:08000000FFFFFFFFFFFFFFFF00
:020000040030CA
:0E000000FF281F3CFFBA81FF0FC00FE00F402A
:00000001FF
