:0400000057EF00F0C6
:100008000782F2A20AEF00F00CEF00F055EF00F0C3
:10001800F292052A3EEF00F0090E896E150E026E67
:100028004B0E016EBE0EE82EFED7012EFCD7022E17
:10003800FAD700D055EF00F0060E896E12EF00F0E7
:10004800080E896E12EF00F0020E896E12EF00F0B2
:10005800000E896E150E026E4B0E016EBE0EE82E56
:10006800FED7012EFCD7022EFAD700D0000E056E5F
:1000780055EF00F00550010AD8B410EF00F0030A5C
:10008800D8B420EF00F0010AD8B424EF00F0070A32
:10009800D8B428EF00F0010AD8B42CEF00F055EFDF
:0A00A80000F00792110014EF08F0B9
:10100000000025EC08F0897C030E046E080E036EC8
:10101000770EE82EFED7032EFCD7042EFAD7000059
:1010200003EF08F057EF00F06C0EF66E100EF76E3F
:10103000000EF86E0900F5CF06F0056A07900792DA
:10104000000EF86E000101EF08F0520ED36E000E94
:101050000F01386F000E926E000E896E39919380E9
:0D1060008A90F28EF288F292F19C12000A42
:020000040020DA
:08000000FFFFFFFFFFFFFFFF00
:020000040030CA
:0E000000FF281F3CFFBF81FF0FC00FE00F4025
:00000001FF
